:020000040804EE
:100000000000012061AC040871AA040879AA040860
:1000100081AA040889AA040891AA04080000000023
:10002000000000000000000000000000A1390508E9
:1000300099AA040800000000813B0508C93B050897
:10004000A9AC0408A9AC0408A9AC0408A9AC04082C
:10005000A9AC0408A9AC040835AB0408A9AC040891
:10006000A9AC0408A9AC0408A9AC0408A9AC04080C
:10007000A9AC0408A9AC0408A9AC0408A9AC0408FC
:10008000A9AC0408A9AC0408A9AC0408A9AC0408EC
:10009000A9AC0408A9AC0408A9AC0408A9AC0408DC
:1000A000A9AC0408A9AC0408A9AC0408A9AC0408CC
:1000B000A5AA0408B9AA0408A9AC0408A9AC0408B4
:1000C000A9AC0408A9AC0408A9AC0408A9AC0408AC
:1000D000A9AC0408CDAA0408A9AC0408E1AA040844
:1000E000A9AC0408A9AC0408A9AC0408A9AC04088C
:1000F000F5AA0408A9AC0408A9AC0408A9AC040832
:10010000A9AC0408A9AC040801AB0408A9AC040814
:10011000A9AC0408A9AC040815AB040821AB040879
:10012000A9AC0408A9AC0408A9AC0408A9AC04084B
:1001300000000000000000000000000000000000BF
:1001400000000000000000000000000000000000AF
:10015000000000000000000000000000000000009F
:10016000000000000000000000000000000000008F
:10017000000000000000000000000000000000007F
:10018000000000000000000000000000000000006F
:10019000000000000000000000000000000000005F
:1001A000000000000000000000000000000000004F
:1001B000000000000000000000000000000000003F
:1001C000000000000000000000000000000000002F
:1001D000000000000000000000000000000000001F
:0401E0005FF8E0F1F3
:1001F00010B5054C237833B9044B13B10448AFF361
:1002000000800123237010BDB0000020000000001A
:100210007075050808B5034B1BB103490348AFF3DC
:10022000008008BD00000000B400002070750508C3
:10023000034613F8012B002AFBD1181A0138704726
:1002400081F0004102E000BF83F0004330B54FEA87
:1002500041044FEA430594EA050F08BF90EA020FF4
:100260001FBF54EA000C55EA020C7FEA645C7FEA87
:10027000655C00F0E2804FEA5454D4EB5555B8BFAA
:100280006D420CDD2C4480EA020281EA030382EA1B
:10029000000083EA010180EA020281EA0303362DAD
:1002A00088BF30BD11F0004F4FEA01314FF4801C80
:1002B0004CEA113102D0404261EB410113F0004F92
:1002C0004FEA03334CEA133302D0524263EB430349
:1002D00094EA050F00F0A780A4F10104D5F1200EE7
:1002E0000DDB02FA0EFC22FA05F2801841F1000142
:1002F00003FA0EF2801843FA05F359410EE0A5F116
:1003000020050EF1200E012A03FA0EFC28BF4CF046
:10031000020C43FA05F3C01851EBE37101F00045FC
:1003200007D54FF0000EDCF1000C7EEB00006EEB09
:100330000101B1F5801F1BD3B1F5001F0CD3490893
:100340005FEA30004FEA3C0C04F101044FEA4452EA
:1003500012F5800F80F09A80BCF1004F08BF5FEA71
:10036000500C50F1000041EB045141EA050130BD51
:100370005FEA4C0C404141EB0101013C28BFB1F563
:10038000801FE9D291F0000F04BF01460020B1FAAE
:1003900081F308BF2033A3F10B03B3F120020CDA81
:1003A0000C3208DD02F1140CC2F10C0201FA0CF05F
:1003B00021FA02F10CE002F11402D8BFC2F1200CC4
:1003C00001FA02F120FA0CFCDCBF41EA0C0190407A
:1003D000E41AA2BF01EB0451294330BD6FEA0404C3
:1003E0001F3C1CDA0C340EDC04F11404C4F12002AE
:1003F00020FA04F001FA02F340EA030021FA04F3C0
:1004000045EA030130BDC4F10C04C4F1200220FA16
:1004100002F001FA04F340EA0300294630BD21FA54
:1004200004F0294630BD94F0000F83F4801306BF1A
:1004300081F480110134013D4EE77FEA645C18BF0E
:100440007FEA655C29D094EA050F08BF90EA020FA5
:1004500005D054EA000C04BF1946104630BD91EA9D
:10046000030F1EBF0021002030BD5FEA545C05D1A0
:100470004000494128BF41F0004130BD14F58004DF
:100480003CBF01F5801130BD01F0004545F0FE4153
:1004900041F470014FF0000030BD7FEA645C1ABF88
:1004A000194610467FEA655C1CBF0B46024650EABF
:1004B000013406BF52EA033591EA030F41F40021EB
:1004C00030BD00BF90F0000F04BF0021704730B571
:1004D0004FF4806404F132044FF000054FF0000146
:1004E00050E700BF90F0000F04BF0021704730B507
:1004F0004FF4806404F1320410F0004548BF4042DC
:100500004FF000013EE700BF42004FEAE2014FEA30
:1005100031014FEA02701FBF12F07F4393F07F4F0B
:1005200081F06051704732F07F4208BF704793F00E
:100530007F4F04BF41F40021704730B54FF4607421
:1005400001F0004521F000411CE700BF50EA010224
:1005500008BF704730B54FF000050AE050EA0102CD
:1005600008BF704730B511F0004502D5404261EB3D
:1005700041014FF4806404F132045FEA915C3FF47E
:10058000D8AE4FF003025FEADC0C18BF03325FEA1B
:10059000DC0C18BF033202EBDC02C2F1200300FACC
:1005A00003FC20FA02F001FA03FE40EA0E0021FAF1
:1005B00002F11444BDE600BF70B54FF0FF0C4CF4DF
:1005C000E06C1CEA11541DBF1CEA135594EA0C0F91
:1005D00095EA0C0F00F0DEF82C4481EA030621EACC
:1005E0004C5123EA4C5350EA013518BF52EA033507
:1005F00041F4801143F4801338D0A0FB02CE4FF0B9
:100600000005E1FB02E506F00042E0FB03E54FF0E8
:100610000006E1FB03569CF0000F18BF4EF0010EE0
:10062000A4F1FF04B6F5007F64F5407404D25FEADC
:100630004E0E6D4146EB060642EAC62141EA55518F
:100640004FEAC52040EA5E504FEACE2EB4F1FD0CD1
:1006500088BFBCF5E06F1ED8BEF1004F08BF5FEA4F
:10066000500E50F1000041EB045170BD06F0004601
:1006700046EA010140EA020081EA0301B4EB5C04AE
:10068000C2BFD4EB0C0541EA045170BD41F48011A6
:100690004FF0000E013C00F3AB8014F1360FDEBFCB
:1006A000002001F0004170BDC4F10004203C35DAA7
:1006B0000C341BDC04F11404C4F1200500FA05F32A
:1006C00020FA04F001FA05F240EA020001F00042CB
:1006D00021F0004110EBD37021FA04F642EB060141
:1006E0005EEA430E08BF20EAD37070BDC4F10C046B
:1006F000C4F1200500FA04F320FA05F001FA04F22F
:1007000040EA020001F0004110EBD37041F100011A
:100710005EEA430E08BF20EAD37070BDC4F1200525
:1007200000FA05F24EEA020E20FA04F301FA05F28D
:1007300043EA020321FA04F001F0004121FA04F235
:1007400020EA020000EBD3705EEA430E08BF20EA05
:10075000D37070BD94F0000F0FD101F0004640003F
:1007600041EB010111F4801F08BF013CF7D041EAC1
:10077000060195F0000F18BF704703F000465200C5
:1007800043EB030313F4801F08BF013DF7D043EA96
:100790000603704794EA0C0F0CEA135518BF95EA4C
:1007A0000C0F0CD050EA410618BF52EA4306D1D1D3
:1007B00081EA030101F000414FF0000070BD50EAF2
:1007C000410606BF1046194652EA430619D094EA7C
:1007D0000C0F02D150EA013613D195EA0C0F05D166
:1007E00052EA03361CBF104619460AD181EA0301BA
:1007F00001F0004141F0FE4141F470014FF0000072
:1008000070BD41F0FE4141F4780170BD70B54FF00C
:10081000FF0C4CF4E06C1CEA11541DBF1CEA13558C
:1008200094EA0C0F95EA0C0F00F0A7F8A4EB05046E
:1008300081EA030E52EA03354FEA013100F0888065
:100840004FEA03334FF0805545EA131343EA12632E
:100850004FEA022245EA111545EA10654FEA0026E3
:100860000EF000419D4208BF964244F1FD0404F59C
:10087000407402D25B084FEA3202B61A65EB0305F8
:100880005B084FEA32024FF480104FF4002CB6EBB5
:10089000020E75EB030E22BFB61A754640EA0C0035
:1008A0005B084FEA3202B6EB020E75EB030E22BF75
:1008B000B61A754640EA5C005B084FEA3202B6EBB6
:1008C000020E75EB030E22BFB61A754640EA9C0075
:1008D0005B084FEA3202B6EB020E75EB030E22BF45
:1008E000B61A754640EADC0055EA060E18D04FEA03
:1008F000051545EA16754FEA06164FEAC30343EAA3
:1009000052734FEAC2025FEA1C1CC0D111F4801F6F
:100910000BD141EA00014FF000004FF0004CB6E768
:1009200011F4801F04BF01430020B4F1FD0C88BF07
:10093000BCF5E06F3FF6AFAEB5EB030C04BFB6EB12
:10094000020C5FEA500C50F1000041EB045170BD05
:100950000EF0004E4EEA113114EB5C04C2BFD4EB32
:100960000C0541EA045170BD41F480114FF0000EB6
:10097000013C90E645EA060E8DE60CEA135594EA32
:100980000C0F08BF95EA0C0F3FF43BAF94EA0C0F35
:100990000AD150EA01347FF434AF95EA0C0F7FF4AA
:1009A00025AF104619462CE795EA0C0F06D152EAFE
:1009B00003353FF4FDAE1046194622E750EA4106E2
:1009C00018BF52EA43067FF4C5AE50EA41047FF4F3
:1009D0000DAF52EA43057FF4EBAE12E74FF0FF3C58
:1009E00006E000BF4FF0010C02E000BF4FF0010C29
:1009F0004DF804CD4FEA410C7FEA6C5C4FEA430CA2
:100A000018BF7FEA6C5C1BD001B050EA410C0CBFF0
:100A100052EA430C91EA030F02BF90EA020F002052
:100A2000704710F1000F91EA030F58BF994208BFB9
:100A300090422CBFD8176FEAE37040F00100704776
:100A40004FEA410C7FEA6C5C02D150EA013C07D1CD
:100A50004FEA430C7FEA6C5CD6D152EA033CD3D018
:100A60005DF8040B704700BF8446104662468C4612
:100A70001946634600E000BF01B5FFF7B7FF002845
:100A800048BF10F1000F01BD4DF808EDFFF7F4FF6E
:100A90000CBF012000205DF808FB00BF4DF808EDF9
:100AA000FFF7EAFF34BF012000205DF808FB00BF1C
:100AB0004DF808EDFFF7E0FF94BF012000205DF83E
:100AC00008FB00BF4DF808EDFFF7CEFF94BF0120F3
:100AD00000205DF808FB00BF4DF808EDFFF7C4FFEC
:100AE00034BF012000205DF808FB00BF4FEA410C35
:100AF0007FEA6C5C02D150EA013C0AD14FEA430C18
:100B00007FEA6C5C02D152EA033C02D14FF0000054
:100B100070474FF0010070474FEA410212F5001292
:100B200015D211D56FF47873B3EB625212D94FEA34
:100B3000C12343F0004343EA505311F0004F23FA1E
:100B400002F018BF404270474FF00000704750EA73
:100B5000013005D111F0004008BF6FF00040704730
:100B60004FF00000704700BF4FEA4102B2F1E0438E
:100B700024BFB3F5001CDCF1FE5C0DD901F0004C84
:100B80004FEAC0024CEA5070B2F1004F40EB8300D4
:100B900008BF20F00100704711F0804F21D113F100
:100BA0003872BCBF01F00040704741F480114FEA39
:100BB0005252C2F11802C2F1200C10FA0CF320FAC2
:100BC00002F018BF40F001004FEAC1234FEAD323DF
:100BD00003FA0CFC40EA0C0023FA02F34FEA430349
:100BE000CCE77FEA625307D150EA01331EBF4FF0D2
:100BF000FE4040F44000704701F0004040F0FE40ED
:100C000040F40000704700BF80F0004002E000BFE9
:100C100081F0004142001FBF5FEA410392EA030FE7
:100C20007FEA226C7FEA236C6AD04FEA1262D2EB31
:100C30001363C1BFD218414048404140B8BF5B4236
:100C4000192B88BF704710F0004F40F4000020F0CF
:100C50007F4018BF404211F0004F41F4000121F0E5
:100C60007F4118BF494292EA030F3FD0A2F101022F
:100C700041FA03FC10EB0C00C3F1200301FA03F16D
:100C800000F0004302D5494260EB4000B0F5000F90
:100C900013D3B0F1807F06D340084FEA310102F14F
:100CA0000102FE2A51D2B1F1004F40EBC25008BF01
:100CB00020F0010040EA03007047490040EB0000CB
:100CC000013A28BFB0F5000FEDD2B0FA80FCACF1CC
:100CD000080CB2EB0C0200FA0CF0AABF00EBC250F9
:100CE00052421843BCBFD0401843704792F0000FE7
:100CF00081F4000106BF80F400000132013BB5E73A
:100D00004FEA41037FEA226C18BF7FEA236C21D0AF
:100D100092EA030F04D092F0000F08BF0846704714
:100D200090EA010F1CBF0020704712F07F4F04D1E2
:100D3000400028BF40F00040704712F100723CBFF5
:100D400000F50000704700F0004343F0FE4040F41F
:100D5000000070477FEA226216BF08467FEA2363DD
:100D60000146420206BF5FEA412390EA010F40F4C8
:100D7000800070474FF0000304E000BF10F0004314
:100D800048BF40425FEA000C08BF704743F09643FB
:100D900001464FF000001CE050EA010208BF704716
:100DA0004FF000030AE000BF50EA010208BF70479D
:100DB00011F0004302D5404261EB41015FEA010CB2
:100DC00002BF84460146002043F0B64308BFA3F1AA
:100DD0008053A3F50003BCFA8CF2083AA3EBC2538C
:100DE00010DB01FA02FC634400FA02FCC2F12002AB
:100DF000BCF1004F20FA02F243EB020008BF20F0E2
:100E00000100704702F1200201FA02FCC2F1200247
:100E100050EA4C0021FA02F243EB020008BF20EA3C
:100E2000DC7070474FF0FF0C1CEAD0521EBF1CEA6A
:100E3000D15392EA0C0F93EA0C0F6FD01A4480EA58
:100E4000010C400218BF5FEA41211ED04FF0006341
:100E500043EA501043EA5111A0FB01310CF000406D
:100E6000B1F5000F3EBF490041EAD3715B0040EA93
:100E7000010062F17F02FD2A1DD8B3F1004F40EB63
:100E8000C25008BF20F00100704790F0000F0CF036
:100E9000004C08BF49024CEA502040EA51207F3AFA
:100EA000C2BFD2F1FF0340EAC250704740F40000D5
:100EB0004FF00003013A5DDC12F1190FDCBF00F0C6
:100EC00000407047C2F10002410021FA02F1C2F174
:100ED000200200FA02FC5FEA310040F1000053EA10
:100EE0004C0308BF20EADC70704792F0000F00F05E
:100EF000004C02BF400010F4000F013AF9D040EA64
:100F00000C0093F0000F01F0004C02BF490011F4F7
:100F1000000F013BF9D041EA0C018FE70CEAD153F5
:100F200092EA0C0F18BF93EA0C0F0AD030F0004C75
:100F300018BF31F0004CD8D180EA010000F0004029
:100F4000704790F0000F17BF90F0004F084691F0E7
:100F5000000F91F0004F14D092EA0C0F01D1420221
:100F60000FD193EA0C0F03D14B0218BF084608D1EA
:100F700080EA010000F0004040F0FE4040F4000034
:100F8000704740F0FE4040F4400070474FF0FF0CC7
:100F90001CEAD0521EBF1CEAD15392EA0C0F93EA0E
:100FA0000C0F69D0A2EB030280EA010C49024FEA60
:100FB000402037D04FF0805343EA111143EA101319
:100FC0000CF000408B4238BF5B0042F17D024FF4D1
:100FD000000C8B4224BF5B1A40EA0C00B3EB510FAC
:100FE00024BFA3EB510340EA5C00B3EB910F24BF95
:100FF000A3EB910340EA9C00B3EBD10F24BFA3EB1A
:10100000D10340EADC001B0118BF5FEA1C1CE0D1E1
:10101000FD2A3FF650AF8B4240EBC25008BF20F094
:10102000010070470CF0004C4CEA50207F32C2BFE8
:10103000D2F1FF0340EAC250704740F400004FF085
:101040000003013A37E792F0000F00F0004C02BFB6
:10105000400010F4000F013AF9D040EA0C0093F080
:10106000000F01F0004C02BF490011F4000F013BDA
:10107000F9D041EA0C0195E70CEAD15392EA0C0F42
:1010800008D142027FF47DAF93EA0C0F7FF470AF7A
:10109000084676E793EA0C0F04D14B023FF44CAFBD
:1010A00008466EE730F0004C18BF31F0004CCAD152
:1010B00030F000427FF45CAF31F000437FF43CAF8E
:1010C0005FE700BF4FF0FF3C06E000BF4FF0010CB0
:1010D00002E000BF4FF0010C4DF804CD4FEA400292
:1010E0004FEA41037FEA226C18BF7FEA236C11D0DC
:1010F00001B052EA530C18BF90EA010F58BFB2EB8F
:10110000030088BFC81738BF6FEAE17018BF40F00E
:10111000010070477FEA226C02D15FEA402C05D1C2
:101120007FEA236CE4D15FEA412CE1D05DF8040B47
:10113000704700BF844608466146FFE70FB5FFF7DA
:10114000C9FF002848BF10F1000F0FBD4DF808ED92
:10115000FFF7F4FF0CBF012000205DF808FB00BF83
:101160004DF808EDFFF7EAFF34BF012000205DF8DD
:1011700008FB00BF4DF808EDFFF7E0FF94BF01202A
:1011800000205DF808FB00BF4DF808EDFFF7D2FF27
:1011900094BF012000205DF808FB00BF4DF808ED6A
:1011A000FFF7C8FF34BF012000205DF808FB00BF37
:1011B0004FEA40024FEA41037FEA226C02D15FEA24
:1011C000402C08D17FEA236C02D15FEA412C02D186
:1011D0004FF0000070474FF0010070474FEA4002A7
:1011E000B2F1FE4F0FD34FF09E03B3EB12620DD955
:1011F0004FEA002343F0004310F0004F23FA02F0BF
:1012000018BF404270474FF00000704712F1610F65
:1012100001D1420205D110F0004008BF6FF000403C
:1012200070474FF00000704742000ED2B2F1FE4FFF
:101230000BD34FF09E03B3EB126209D44FEA0023A5
:1012400043F0004323FA02F070474FF0000070476C
:1012500012F1610F01D1420202D14FF0FF3070470D
:101260004FF00000704700BF80B588B004AF7860D1
:101270000B46FB70FB78302B05D0302B06DC102B97
:1012800001D0202B02D1FB78FB7301E00023FB731C
:10129000282302930123019307F10F0300930123F5
:1012A0007F22D02178680BF025F8034618461037C6
:1012B000BD4680BD80B588B004AF78600023FB7266
:1012C00000217868FFF7D0FF0346FB73FB7B002B00
:1012D00003D0AF4B02221A70D6E2282302930123D7
:1012E000019307F10B03009301230022D0217868BA
:1012F0000BF0FAF80346FB73FB7B002B02D1FB7A61
:10130000EA2B03D0A24B03221A70BDE20023FB722A
:10131000282302930123019307F10B030093012378
:101320000622D02178680BF0DFF80346FB73FB7AC6
:1013300063F07F03DBB2FB72FB7B002B0FD1282312
:1013400002930123019307F10B030093012306226B
:10135000D02178680AF0CEFF0346FB7327E0002314
:10136000FB72282302930123019307F10B030093DF
:1013700001230622D02178680BF0B6F80346FB73F0
:10138000FB7A63F07F03DBB2FB72FB7B002B0ED199
:10139000282302930123019307F10B0300930123F8
:1013A0000622D02178680AF0A5FF0346FB73FB7B79
:1013B000002B03D0764B04221A7065E2642009F0FA
:1013C000A7FC0023FB72282302930123019307F15A
:1013D0000B03009301230622D02178680BF084F8D8
:1013E0000346FB73FB7A23F00703DBB2FB72FB7A45
:1013F00043F00103DBB2FB72FB7A23F00803DBB29C
:10140000FB72FB7B002B0ED1282302930123019357
:1014100007F10B03009301230622D02178680AF01C
:1014200069FF0346FB73FB7B002B03D0584B05225F
:101430001A7029E20023FB722823029301230193EF
:1014400007F10B03009301230622D02178680BF0EB
:101450004BF80346FB73FB7A03F04003002B16D0D6
:10146000FB7A23F04003DBB2FB72FB7B002B0ED137
:10147000282302930123019307F10B030093012317
:101480000622D02178680AF035FF0346FB73FB7B08
:10149000002B03D03E4B06221A70F5E10023FB72AD
:1014A000282302930123019307F10B0300930123E7
:1014B0000322D02178680BF017F80346FB73FB7A00
:1014C00003F01003002B16D0FB7A23F01003DBB2DD
:1014D000FB72FB7B002B0ED1282302930123019387
:1014E00007F10B03009301230322D02178680AF04F
:1014F00001FF0346FB73FB7B002B03D0244B072229
:101500001A70C1E120217868FFF7AEFE0346FB7335
:10151000FB7B002B05D020217868FFF7A5FE034652
:10152000FB73FB7B002B03D0194B08221A70ABE135
:101530000023FB72282302930123019307F10B037D
:10154000009301230022D02178680AF0CDFF0346E2
:10155000FB73FB7AFF2B13D0FF23FB72FB7B002B6B
:101560000ED1282302930123019307F10B0300936B
:1015700001230022D02178680AF0BCFE0346FB73E9
:10158000FB7B002B06D0024B09221A707CE100BFC6
:10159000D00000200023FB72282302930123019333
:1015A00007F10B03009301230122D02178680AF090
:1015B0009BFF0346FB73FB7A03F00103002B09D06A
:1015C000FB7A03F00603042B04D1FB7A03F0380303
:1015D000202B1BD0FB7A23F03F03DBB2FB72FB7A9C
:1015E00043F02503DBB2FB72FB7B002B0ED12823DB
:1015F00002930123019307F10B03009301230122BE
:10160000D02178680AF076FE0346FB73FB7B002B43
:1016100003D09F4B0A221A7036E10023FB72282365
:1016200002930123019307F10B030093012302228C
:10163000D02178680AF058FF0346FB73FB7A03F069
:101640000703072B1BD0FB7A23F00703DBB2FB72E7
:10165000FB7A43F00703DBB2FB72FB7B002B0ED15E
:10166000282302930123019307F10B030093012325
:101670000222D02178680AF03DFE0346FB73FB7B13
:10168000002B03D0824B0B221A70FDE000233B811C
:101690000023BB81322302930223019307F1080345
:1016A000009301231022D02178680AF01DFF034621
:1016B000FB733B7A1BB21B021AB27B7A1BB2134339
:1016C0001BB2BB81BB89C3F30B03FF2B1CD03B7A3E
:1016D00023F00F03DBB23B7200237B723B7A3B7239
:1016E000FF237B72FB7B002B0ED13223029302235C
:1016F000019307F10803009301231022D021786899
:101700000AF0F8FD0346FB730023FB7228230293C3
:101710000123019307F10B03009301231422D0212D
:1017200078680AF0E1FE0346FB73FB7A03F00103DD
:10173000002B09D0FB7A03F00603042B04D1FB7ABB
:1017400003F03803202B1BD0FB7A23F03F03DBB2DE
:10175000FB72FB7A43F02503DBB2FB72FB7B002BB1
:101760000ED1282302930123019307F10B03009369
:1017700001231422D02178680AF0BCFD0346FB73D4
:10178000FB7B002B03D0424B0D221A707CE0002320
:10179000FB72282302930123019307F10B030093AB
:1017A00001231522D02178680AF09EFE0346FB73C0
:1017B000FB7A03F00303032B1BD0FB7A23F0030314
:1017C000DBB2FB72FB7A43F00303DBB2FB72FB7B01
:1017D000002B0ED1282302930123019307F10B0361
:1017E000009301231522D02178680AF083FD034677
:1017F000FB73FB7B002B03D0254B0E221A7043E0BA
:1018000000217868FFF730FD0346FB73FB7B002B5C
:1018100003D01F4B0F221A7036E00023FB722823DF
:1018200002930123019307F10B0300930123072285
:10183000D02178680AF058FE0346FB73FB7A002B30
:1018400013D00023FB72FB7B002B0ED128230293C5
:101850000123019307F10B03009301230722D021F9
:1018600078680AF047FD0346FB73FB7B002B03D02F
:10187000074B10221A7007E0054B01221A70102244
:101880000021044813F0BEFE1037BD4680BD00BFE6
:10189000D0000020D4000020F0B58FB004AF7860F5
:1018A0007B687B62FA237B847B8C4FF47A7202FB29
:1018B00003F3A74AA2FB03239B09FB610123FB76E9
:1018C000F8690EF05BFEA34B1B78012B40F03A81C8
:1018D00007F108030C220021184613F093FE0021A3
:1018E000786AFFF7C1FC0346FB76FB7E002B40F0D5
:1018F0002B81642302930C23019307F108030093C7
:1019000001232D22D021786A0AF0EEFD0346FB76F2
:10191000FB7E002B40F01A818F4B1B781B018F4AF6
:1019200013447B613B7A1BB21B021AB27B7A1BB257
:1019300013431AB27B691A80BB7A1BB21B021AB21C
:10194000FB7A1BB213431AB27B695A803B7B1BB2F2
:101950001B021AB27B7B1BB213431AB27B699A80BB
:10196000BB7B1BB21B021AB2FB7B1BB213431AB226
:101970007B69DA803B7C1BB21B021AB27B7C1BB2F8
:1019800013431AB27B691A81BB7C1BB21B021AB2C9
:10199000FB7C1BB213431AB27B695A817B69B3F992
:1019A00000301A46642302FB03F3002B01DA03F62E
:1019B000FF731B131AB27B691A807B69B3F902307B
:1019C0001A46642302FB03F3002B01DA03F6FF73CC
:1019D0001B131AB27B695A807B69B3F904301A462B
:1019E000642302FB03F3002B01DA03F6FF731B13DE
:1019F0001AB27B699A807B69B3F906301A4613469E
:101A00009B0013445B00564A82FB0312D211DB1782
:101A1000D31A1AB27B69DA807B69B3F908301A46A7
:101A200013469B0013445B004D4A82FB0312D21104
:101A3000DB17D31A1AB27B691A817B69B3F90A30B2
:101A40001A4613469B0013445B00454A82FB03126F
:101A5000D211DB17D31A1AB27B695A817B69B3F9A9
:101A600000301846FFF78AF9034683F000447B698B
:101A7000B3F902301846FFF781F905467B69B3F9DF
:101A800002301846FFF77AF9034619462846FFF751
:101A9000C9F903461E467B69B3F904301846FFF7BF
:101AA0006DF905467B69B3F904301846FFF766F90E
:101AB000034619462846FFF7B5F90346194630464E
:101AC000FFF7A8F80346184614F068FC03461946C9
:101AD000204614F061FC034622491846FFF7A2F99C
:101AE000034621491846FFF751FA03461846FFF707
:101AF00075FB03461AB27B69DA817B69B3F9023060
:101B00001846FFF73BF904467B69B3F904301846E1
:101B1000FFF734F903461946204614F03DFC03460E
:101B200010491846FFF77EF903460F491846FFF79C
:101B30002DFA03461846FFF751FB03461AB27B699C
:101B40009A81BDE600BFBBE600BFB9E600BFB7E6BD
:101B5000D34D6210D0000020D1000020D40000201E
:101B60003F06E76300003443DB0F494080B58CB08B
:101B700000AF7860844BDB69834A43F08053D361C4
:101B8000814BDB6903F080533B623B6A7E4BDB6930
:101B90007D4A43F00063D3617B4BDB6903F0006354
:101BA000FB61FB690BF03AFD774B1B6A03F0020304
:101BB000002B1AD109F0A2F8F862734B1B6A724A23
:101BC00043F0010313620AE009F098F80246FB6A49
:101BD000D31AB3F5487F02D30BF02CFDD0E06A4B4B
:101BE0001B6A03F00203002BEED0674B1B6ABB623B
:101BF000BB6A03F44073B3F5807F0AD0BB6A23F459
:101C00004073BB62BB6A43F48073BB625E4ABB6ACB
:101C10001362BB6A03F40043002B05D15A4B1B6AC5
:101C2000594A43F400431362584B1B6B574A23F045
:101C300001031363554B5B6B544A23F00403536356
:101C40007B68534A1A607B684FF0FF325A607B68AA
:101C500000229A60786808F0A7F80346002B02D0AB
:101C60000BF0E8FC8CE00A21786808F067FE034678
:101C70004AF2A552934240D007F1180300210A46C8
:101C80001A800A469A7000237B6100233B7600236A
:101C90007B760023BB7607F118030022194678688B
:101CA00008F017F90346002B02D00BF0C3FC67E0E5
:101CB00001237B750123BB750023FB7507F114031A
:101CC00000221946786808F073FA0346002B02D008
:101CD0000BF0B0FC54E0786900F05CF80346BB847C
:101CE000BB8C1A460921786808F00EFE4AF2A5520C
:101CF0000A21786808F008FE40E007F1100300218F
:101D00000A461A800A469A700023FB6007F1100306
:101D100000221946786808F073F90346002B2DD18C
:101D200007F10C0300221946786808F0F7FA034619
:101D3000002B23D17B7B012B20D1BB7B012B1DD121
:101D4000FB7B002B1AD10023FB840921786808F063
:101D5000F5FD0346FB84FB8C002B0FD00023BB60FA
:101D600007F10802FB8C1146184600F031F807F124
:101D7000080300221946786808F01AFA0BF05AFC9A
:101D80003037BD4680BD00BF00100240006C0040EF
:101D90000028004080B483B000AF7860FB791BB2AC
:101DA0005B021AB27B791BB25B011BB203F4F073C6
:101DB0001BB213431AB2BB791BB203F01F031BB251
:101DC00013431BB29BB218460C37BD4680BC70470C
:101DD00080B483B000AF03463960FB80FB885B0AA8
:101DE0009BB2DBB203F07F03DAB23B68DA70FB88A8
:101DF0005B099BB2DBB203F00F03DAB23B685A70A7
:101E0000FB88DBB203F01F03DAB23B689A7000BFB5
:101E10000C37BD4680BC704780B586B000AF00234C
:101E2000FB75414B414A1A6000233B6130E03E4B59
:101E30001B68BB60BB681B884FF6FF7293421FD1C3
:101E4000BB6802331B884FF6FF72934218D1BB6800
:101E500004331B884FF6FF72934211D1BB680633DF
:101E60001B884FF6FF7293420AD12F4B1B682F4AF3
:101E7000934211D10123FB752B4B2D4A1A600BE0C5
:101E8000294B1B688033284A13603B6901333B614F
:101E90003B690F2BCBD900E000BF254B7B60224B69
:101EA0001B687A689A423BD10023FB6033E01E4BEB
:101EB0001B683B603B681B884FF6FF72934222D140
:101EC0003B6802331B884FF6FF7293421BD13B687D
:101ED00004331B884FF6FF72934214D13B680633DC
:101EE0001B884FF6FF7293420DD10F4B1B687A6827
:101EF0009A4214D1FB7D002B11D00B4B0B4A1A6078
:101F000000F05CF90BE0084B1B688033064A136055
:101F1000FB680133FB60FB680F2BC8D900E000BFF2
:101F200000BF1837BD4680BD0000002000E807084C
:101F300000F00708F0B400AF294A2A4B104603F11D
:101F4000200402461946D1F800C04E688D68C96861
:101F5000C2F800C056609560D16010331030A342C3
:101F6000EFD102461B8813801E4B00221A801D4BA6
:101F700046225A801B4B4FF6FB729A80194B552212
:101F8000DA80184B0A221A81164B02225A81154B0D
:101F900043F698229A81134B42F60412DA81114BD0
:101FA00032221A820F4B44F620625A820D4B0522D0
:101FB0009A820C4B0522DA820A4B00221A83094BC3
:101FC00001225A83074B42F228329A83054B0122A1
:101FD000DA83044B00221A8400BFBD46F0BC704770
:101FE000280000200400002080B48BB000AF002344
:101FF0007B626E4B1B686E4A934202D16D4B7B62D3
:1020000003E06A4B1B68803B7B627B6A1B887B8496
:10201000B7F92230B3F1FF3F02D0674A7B8C1380BF
:102020007B6A02331B883B84B7F92030B3F1FF3F52
:1020300002D0614A3B8C53807B6A04331B88FB834C
:10204000B7F91E30B3F1FF3F02D05B4AFB8B9380A0
:102050007B6A06331B88BB83B7F91C30B3F1FF3FA3
:1020600002D0554ABB8BD3807B6A08331B887B83A5
:10207000B7F91A30B3F1FF3F02D04F4A7B8B13817F
:102080007B6A0A331B883B83B7F91830B3F1FF3FF3
:1020900002D0494A3B8B53817B6A0C331B88FB82FD
:1020A000B7F91630B3F1FF3F02D0434AFB8A938160
:1020B0007B6A0E331B88BB82B7F91430B3F1FF3F44
:1020C00002D03D4ABB8AD3817B6A10331B887B8256
:1020D0007B8A4FF6FF72934202D0374A7B8A138283
:1020E0007B6A12331B883B823B8A4FF6FF72934216
:1020F00002D0314A3B8A53827B6A14331B88FB81AE
:10210000B7F90E30B3F1FF3F02D02B4AFB8993821F
:102110007B6A16331B88BB81B7F90C30B3F1FF3FE4
:1021200002D0254ABB89D3827B6A18331B887B8106
:102130007B894FF6FF72934202D01F4A7B8913833B
:102140007B6A1A331B883B813B894FF6FF729342AF
:1021500002D0194A3B8953837B6A1C331B88FB805E
:10216000B7F90630B3F1FF3F02D0134AFB889383DF
:102170007B6A1E331B88BB80BB884FF6FF7293427D
:1021800002D00D4ABB88D3837B6A20331B887B80B7
:102190007B884FF6FF72934202D0074A7B881384F4
:1021A00000BF2C37BD4680BC704700BF0000002038
:1021B00000E8070880F70708040000202DE9B04F69
:1021C000A4B000AF002387F88F300023C7F8843015
:1021D00000237B67A44BFB670123C7F8803011F015
:1021E00075FC72B600BF09F049F8034687F88F30D6
:1021F00097F88F30002B40F02A8107F1840207F115
:1022000074031146184609F021F9034687F88F3008
:10221000D7F88430B3F1FF3F02D0012387F88F3025
:1022200097F88F30002B40F012818F4BC7F8883021
:10223000D7F8883019468D4B1B881BB21BB2DA17B2
:102240001C46154622462B46012008F0A7FFD7F86A
:10225000883002331946854B5B881BB21BB2DA17F4
:102260009846914642464B46012008F097FFD7F822
:102270008830043319467D4B9B881BB21BB2DA179A
:102280009A46934652465B46012008F087FFD7F8EE
:10229000883006331946754BDB881BB21BB2DA1740
:1022A000BB66FA66D7E91A23012008F077FFD7F852
:1022B0008830083319466D4B1B891BB21BB2DA17E5
:1022C0003B667A66D7E91823012008F067FFD7F844
:1022D00088300A331946654B5B891BB21BB2DA178B
:1022E000BB65FA65D7E91623012008F057FFD7F838
:1022F00088300C3319465D4B9B891BB21BB2DA1731
:102300003B657A65D7E91423012008F047FFD7F829
:1023100088300E331946554BDB891BB21BB2DA17D6
:10232000BB64FA64D7E91223012008F037FFD7F81D
:102330008830103319464D4B1B8A9BB29BB200224A
:102340003B647A64D7E91023012008F027FFD7F80F
:10235000883012331946454B5B8A9BB29BB20022F0
:10236000BB63FA63D7E90E23012008F017FFD7F803
:102370008830143319463D4B9B8A1BB21BB2DA17C7
:102380003B637A63D7E90C23012008F007FFD7F8F5
:10239000883016331946354BDB8A1BB21BB2DA176D
:1023A000BB62FA62D7E90A23012008F0F7FED7F8EA
:1023B0008830183319462D4B1B8B9BB29BB20022E1
:1023C0003B627A62D7E90823012008F0E7FED7F8DC
:1023D00088301A331946254B5B8B9BB29BB2002287
:1023E000BB61FA61D7E90623012008F0D7FED7F8D0
:1023F00088301C3319461D4B9B8B1BB21BB2DA175E
:102400003B617A61D7E90423012008F0C7FED7F8C1
:1024100088301E331946154BDB8B9BB29BB20022D2
:10242000BB60FA60D7E90223012008F0B7FED7F8B5
:102430008830203319460D4B1B8C9BB29BB2002277
:102440003B607A60D7E90023012008F0A7FE08F07E
:102450003BFF62B600BF11F069FB97F88F3018465A
:102460009037BD46BDE8B08F00E8070804000020A3
:102470002DE9B04390B000AF7860002387F83F307B
:102480000023FB610023FB600123BB6111F01EFBF5
:1024900072B600BF08F0F2FE034687F83F3097F8A7
:1024A0003F30002B06D062B600BF11F03FFB97F81B
:1024B0003F3017E17B687B628D4B1B688D4A9342EE
:1024C00005D28B4B1B6811338A4A934202D3884B47
:1024D000894A1A600023BB631CE0BB6B5A00844B23
:1024E0001B68D118BB6B5B007A6A13441B889BB2D4
:1024F00000229846914642464B46012008F04EFE87
:10250000034687F83F3097F83F30002B06D1BB6B6E
:102510000133BB63BB6B102BDFD900E000BF97F822
:102520003F30002B5BD0724B1B6823F4FF6323F01A
:1025300007033B623B6A7B616D4A3B6A136007F1AC
:102540001C0207F10C031146184608F07FFF0346F2
:1025500087F83F30FB69B3F1FF3F17D0002387F8BE
:1025600037300FE007F11C0207F10C031146184643
:1025700008F06CFF034687F83F3097F83730013397
:1025800087F8373097F83730022BEBD997F83F3080
:10259000002B24D100233B631CE03B6B5A00544BBF
:1025A0001B68D1183B6B5B007A6A13441B889BB293
:1025B00000221C46154622462B46012008F0EEFD5F
:1025C000034687F83F3097F83F30002B06D13B6B2E
:1025D00001333B633B6B102BDFD900E000BF97F862
:1025E0003F30002B76D1424B1B68424A934202D3C4
:1025F0003F4B414A1A600023FB623D4B1B683E4A39
:10260000934204D13D4B7B613C4BFB6208E0384B6D
:102610001B683A4A934203D1374B7B61364BFB62CE
:10262000FB6A002B51D0FB6A1B884FF6FF72934266
:102630004BD0FB6A02331B884FF6FF72934244D0A3
:10264000FB6A04331B884FF6FF7293423DD0FB6A4E
:1026500006331B884FF6FF72934236D007F11C02F7
:1026600007F10C031146184608F0F0FE034687F800
:102670003F30FB69B3F1FF3F17D0002387F82B30C1
:102680000FE007F11C0207F10C031146184608F091
:10269000DDFE034687F83F3097F82B30013387F88B
:1026A0002B3097F82B30022BEBD997F83F30002BCB
:1026B00003D1FB69B3F1FF3F07D008F005FE62B616
:1026C00000BF11F033FA01230CE0094B1B68803383
:1026D000074A136008F0F8FD62B600BF11F026FA51
:1026E00097F83F3018464037BD46BDE8B08300BF7D
:1026F0000000002000F8070800E8070800F00708BD
:1027000080B500AFFFF716FC0248FFF7B1FE0346A5
:10271000184680BD040000202DE9F04F91B002AFB3
:102720006B461E46402387F82F308F4B1B7887F867
:102730002E30FF2387F83730FF2387F83630FF230A
:1027400087F835304FF0FF33FB614FF0FF33BB614B
:102750004FF0FF337B6197F82E30002B0CD1834B69
:102760001B7887F83730824B1B7887F83630814BDF
:102770001B7887F8353012E097F82E30012B0CD1FA
:102780007D4B1B7887F837307C4B1B7887F83630C9
:102790007B4B1B7887F8353001E00223DEE007F140
:1027A000180107F11C0207F1140300930B46754949
:1027B000754812F0F9FE0346032B01D00323CDE048
:1027C000FB69DBB297F837209A420DD1BB69DBB2C7
:1027D00097F836209A4207D17B69DBB297F835200B
:1027E0009A4201D10123B9E097F82F30013BBB6237
:1027F00097F82F300022984691464FF000024FF094
:1028000000034FEAC90343EA58734FEAC80297F836
:102810002F3000221C4615464FF000024FF00003F7
:10282000EB0043EA5473E20097F82F300733DB08DC
:10283000DB00ADEB030D02AB00337B6297F82F306A
:102840001A464949786A12F06FFF97F82E30002B2C
:102850000CD1FB69DAB27B6ADA71BB69DAB27B6AE6
:102860001A727B69DAB27B6A5A720FE097F82E30DF
:10287000012B0BD1FB69DAB27B6A5A73BB69DAB2FE
:102880007B6A9A737B69DAB27B6ADA73012387F811
:10289000343072B600BF08F0F1FC0346002B52D171
:1028A0003B1D00221A605A609A60DA602E4BFB6072
:1028B00001233B613A463B1D1146184608F0C6FD10
:1028C000034687F8343097F83430002B3BD101238E
:1028D00087F8343000233B632EE03B6B03337A6A86
:1028E000D35C1A063B6B0233796ACB5C1B041A4338
:1028F0003B6B0133796ACB5C1B021343796A3A6BF9
:102900000A44127813433B623B6B03F1006101F50B
:10291000FF213B6A00229A46934652465B460220BC
:1029200008F03CFC034687F8343097F83430002B2D
:1029300008D13B6B04333B6397F82F303A6B9A42D4
:10294000CBD300E000BF08F0BFFC62B600BF97F831
:102950003430012B01D1052300E00423B54618468D
:102960003C37BD46BDE8F08F00F8070807F80708B8
:1029700008F8070809F807080DF807080EF807080F
:102980000FF8070898750508A875050880B584B084
:1029900000AF786039604FF0500383F31188BFF3C4
:1029A0006F8FBFF34F8FFB6000BF2021104808F0EE
:1029B00089FF0346012B04D0012220210C4808F096
:1029C00098FF01224FF480510A4808F092FF01223B
:1029D0004FF40051074808F08CFF4FF4FA6008F0FC
:1029E00097F905F0ADFF00BF1037BD4680BD00BFB1
:1029F00000080140000C014080B582B000AF4FF0EC
:102A0000500383F31188BFF36F8FBFF34F8F7B6049
:102A100000BF2021104808F055FF0346012B04D0C9
:102A2000012220210C4808F064FF01224FF480515C
:102A30000A4808F05EFF01224FF40051074808F0F1
:102A400058FF4FF4FA6008F063F905F079FF00BF12
:102A50000837BD4680BD00BF00080140000C0140A2
:102A600080B58AB000AF78600A23FB8400233B6204
:102A70005F4B1B685B6BFB615D4B1B689B6BBB61BA
:102A80005C4B186807F108014FF0FF3300220DF08E
:102A9000F7FF0346002BF3D1BB68002B01D1FB6984
:102AA00000E0BB693B623B7C002B32D1524B9A6801
:102AB000FB681340002B2CD0BB6819464C480BF028
:102AC000BDFCBB68002B04D1494B1B683A6A5A63B2
:102AD00013E0BB68042B04D1454B1A683B6A93632F
:102AE0000BE0BB68082B04D1414B1A683B6AD363E7
:102AF00003E03F4B1A683B6A136410F0E7FF3E4B5C
:102B00009A68FB68DB4313403B4A936011F00EF870
:102B10006DE03B7CFF2BB3D1374B9A68FB681340C9
:102B2000002BADD17B7C1A46FB8C02FB03F31A46CB
:102B30003B6A13447B612E4BDB687A699A429FD8CB
:102B40007B7C002B24D1BB68002B06D1284BDA6894
:102B5000274B1B6801325A6336E0BB68042B06D151
:102B6000234BDB68224A1268013393632CE0BB6875
:102B7000082B06D11E4BDB681D4A12680133D36354
:102B800022E01B4BDB681A4A1268013313641BE016
:102B9000BB68002B04D1164B1B687A695A6313E09B
:102BA000BB68042B04D1124B1A687B6993630BE05A
:102BB000BB68082B04D10E4B1A687B69D36303E012
:102BC0000B4B1A687B691364BB68194608480BF005
:102BD0007BFB0346002B7FF453AF10F077FF064BCF
:102BE0009A68FB681343044A936010F09FFF47E71D
:102BF000A8010020000100206008002080B586B0F8
:102C000000AF78600B46FB707B681B88FB82FB8AF9
:102C1000072B02D8FB8ADBB200E003237B75FB782D
:102C2000FF2B40F0EB807B7D072B00F2488101A257
:102C300052F823F0552C04089B2C0408E12C0408BE
:102C4000272D04086D2D0408912D0408B52D0408C6
:102C5000D92D04080023BB600423FB60FF233B74D1
:102C600000237B74984B186807F108014FF0FF337D
:102C700000220DF091FE0423BB600823FB60FF23BC
:102C80003B7400237B74904B186807F108014FF0E8
:102C9000FF3300220DF080FE11E10023BB6004230E
:102CA000FB60FF233B7412237B74874B186807F18A
:102CB00008014FF0FF3300220DF06EFE0423BB60CD
:102CC0000823FB60FF233B7400237B747E4B186852
:102CD00007F108014FF0FF3300220DF05DFEEEE03A
:102CE0000023BB600423FB60FF233B7400237B7441
:102CF000754B186807F108014FF0FF3300220DF003
:102D00004BFE0423BB600823FB60FF233B741223AC
:102D10007B746D4B186807F108014FF0FF330022F8
:102D20000DF03AFECBE00023BB600423FB60FF23E1
:102D30003B7412237B74644B186807F108014FF051
:102D4000FF3300220DF028FE0423BB600823FB6044
:102D5000FF233B7412237B745B4B186807F1080157
:102D60004FF0FF3300220DF017FEA8E00023BB60F8
:102D70000423FB60FF233B7400237B74524B1868D1
:102D800007F108014FF0FF3300220DF005FE96E039
:102D90000423BB600823FB60FF233B7400237B7488
:102DA000494B186807F108014FF0FF3300220DF07E
:102DB000F3FD84E00023BB600423FB60FF233B742E
:102DC00012237B74404B186807F108014FF0FF3362
:102DD00000220DF0E1FD72E00423BB600823FB60DC
:102DE000FF233B7412237B74374B186807F10801EB
:102DF0004FF0FF3300220DF0CFFD60E0FB78002B99
:102E00005DD17B7D072B5AD801A252F823F000BF79
:102E1000312E0408312E0408312E0408312E040806
:102E2000772E04089B2E0408772E04089B2E040896
:102E30000023BB600423FB6000233B7400237B74EE
:102E4000214B186807F108014FF0FF3300220DF005
:102E5000A3FD0423BB600823FB6000233B74002315
:102E60007B74194B186807F108014FF0FF330022FB
:102E70000DF092FD23E00023BB600423FB600023E0
:102E80003B7400237B74104B186807F108014FF066
:102E9000FF3300220DF080FD11E00423BB60082306
:102EA000FB6000233B7400237B74074B186807F119
:102EB00008014FF0FF3300220DF06EFD00BF00BF90
:102EC0001837BD4680BD00BF0001002080B592B01C
:102ED00000AF07F1280300221A605A609A60DA6096
:102EE0001A615A61224BBB6207F128031A460C2172
:102EF00004200DF0CBFC03461E4A13601D4B1B68DB
:102F0000002B0BD14FF0500383F31188BFF36F8F69
:102F1000BFF34F8F7B6400BF00BFFDE73B1D242242
:102F20000021184612F06EFB134B7B604FF40073C8
:102F3000BB611823FB613B1D1A4600210F480DF0B1
:102F400073FA03460E4A13600D4B1B68002B0BD11E
:102F50004FF0500383F31188BFF36F8FBFF34F8F90
:102F60003B6400BF00BFFDE700BF4837BD4680BDE2
:102F7000CC75050804010020D87505084530040803
:102F80000801002080B586B000AF78600B46FB706A
:102F90000023FB6000233B82FB78BB740323FB749C
:102FA00000233B7500237B757B68B3F5802F04D02D
:102FB0007B68B3F5002F06D03DE0204BFB604FF45B
:102FC00080533B8205E01D4BFB604FF400533B8276
:102FD00000BFBB7C052B2BD801A252F823F000BF09
:102FE00011300408F92F0408FF2F040811300408D9
:102FF000053004080B30040801237B7509E0002329
:103000007B7506E004233B7503E008233B7500E075
:1030100000BFFB68002B0DD03B8A002B0AD0084B69
:10302000186807F10C01002300220DF0B5FC02E046
:1030300000BF00E000BF1837BD4680BD000C014056
:1030400004010020B0B58EB000AF7860FA233B6376
:10305000C84B07F10C041D460FCD0FC495E80300C3
:1030600084E80300002387F837301CE097F8372006
:1030700013465B0013449B0038333B442C3B1868D9
:1030800097F8372013465B0013449B0038333B44CA
:10309000283B1B880022194608F02BFC97F8373094
:1030A000013387F8373097F83730012BDED921E12B
:1030B000002387F8363018E197F8362013465B0076
:1030C00013449B0038333B442C3B1B68002B00F01F
:1030D000008197F8362013465B0013449B00383379
:1030E0003B44283B1B88002B00F0F38097F83620E8
:1030F00013465B0013449B0038333B442C3B1A6857
:103100007B6A9A4240F0EC8097F8362013465B00C9
:1031100013449B0038333B44283B1A883B8D9A422A
:1031200040F0DE8097F8361097F836200B465B00AB
:103130000B449B0038333B44263B197813465B0015
:1031400013449B0038333B44253B0A461A7097F8DA
:10315000362097F82A1013465B0013449B0038333F
:103160003B44263B0A461A7097F8362097F82C10F5
:1031700013465B0013449B0038333B44243B0A4610
:103180001A7097F8362097F82D1013465B001344F9
:103190009B0038333B44233B0A461A7097F836208D
:1031A00013465B0013449B0038333B44263B1B789B
:1031B000052B00F2908001A252F823F00732040898
:1031C000D5310408D53104086D320408D53104081E
:1031D000D531040897F8362013465B0013449B0052
:1031E00038333B442C3B186897F8362013465B0075
:1031F00013449B0038333B44283B1B88002219466C
:1032000008F077FB6CE097F8362013465B00134418
:103210009B0038333B442C3B186897F83620134604
:103220005B0013449B0038333B44283B1B88194602
:1032300008F048FB0346012B4FD097F83620134681
:103240005B0013449B0038333B442C3B186897F8D1
:10325000362013465B0013449B0038333B44283B25
:103260001B880122194608F044FB36E097F8362007
:1032700013465B0013449B0038333B442C3B1868D7
:1032800097F8362013465B0013449B0038333B44C9
:10329000283B1B88194608F015FB0346002B1ED05F
:1032A00097F8362013465B0013449B0038333B44A9
:1032B0002C3B186897F8362013465B0013449B009C
:1032C00038333B44283B1B880022194608F011FB89
:1032D00005E000BF04E000BF02E000BF00E000BF67
:1032E00097F83630013387F8363097F83630012BAF
:1032F0007FF6E2AE204B186807F12401002300227C
:103300000DF0BEFB0346002B3FF4D2AE002387F83E
:10331000353061E197F8352013465B0013449B007C
:1033200038333B442C3B1B68002B00F04B8197F853
:10333000352013465B0013449B0038333B44283B45
:103340001B88002B00F03E8197F8352013465B0068
:1033500013449B0038333B44263B1B78052B00F37A
:103360003381042B0ADA012B00F0D980022B00F004
:10337000118129E1E07505080401002097F8352046
:1033800013465B0013449B0038333B44243B1B78BB
:10339000002B40F0978097F8352013465B001344CC
:1033A0009B0038333B44253B1B78002B3ED197F8DC
:1033B000352013465B0013449B0038333B44263BC7
:1033C00000221A7097F8352013465B0013449B00C7
:1033D00038333B442C3B186897F8352013465B0084
:1033E00013449B0038333B44283B1B88194608F0A4
:1033F00069FA0346012B00F0E98097F8352013465F
:103400005B0013449B0038333B442C3B186897F80F
:10341000352013465B0013449B0038333B44283B64
:103420001B880122194608F064FACFE097F835208E
:1034300013465B0013449B0038333B44253B1B7809
:10344000032B40F0C38097F8352013465B001344EC
:103450009B0038333B44263B03221A7097F83520F3
:1034600013465B0013449B0038333B442C3B1868E5
:1034700097F8352013465B0013449B0038333B44D8
:10348000283B1B88194608F01DFA0346002B00F064
:103490009D8097F8352013465B0013449B0038331A
:1034A0003B442C3B186897F8352013465B001344C7
:1034B0009B0038333B44283B1B880022194608F008
:1034C00018FA83E097F8352013465B0013449B00FD
:1034D00038333B442C3B186897F8352013465B0083
:1034E00013449B0038333B44283B1B88194608F0A3
:1034F00018FA97F8352013465B0013449B003833C5
:103500003B44243B1B78013BD9B213465B00134478
:103510009B0038333B44243B0A461A7057E097F827
:10352000352013465B0013449B0038333B44233B58
:103530001B78002B22D097F8352013465B001344EC
:103540009B0038333B442C3B186897F835201346D2
:103550005B0013449B0038333B44283B1B881946CF
:1035600008F0DFF997F8352013465B0013449B0001
:1035700038333B44233B00221A7028E097F835206B
:1035800013465B0013449B0038333B44233B01222A
:103590001A701CE097F8352013465B0013449B001B
:1035A00038333B442C3B186897F8352013465B00B2
:1035B00013449B0038333B44283B1B88194608F0D2
:1035C000B0F904E000BF02E000BF00E000BF97F8E0
:1035D0003530013387F8353097F83530012B7FF6D9
:1035E00099AE386B0CF0CAFF84E600BF80B483B09C
:1035F00000AF0346FB7197F90730002B0CDBFB791A
:1036000003F01F02074997F907305B09012000FA10
:1036100002F2603341F8232000BF0C37BD4680BC66
:10362000704700BF00E100E080B400AFBFF34F8FF0
:1036300000BF064BDB6803F4E0620449044B13430C
:10364000CB60BFF34F8F00BF00BFFDE700ED00E090
:103650000400FA0580B584B000AF9C4B00229A604C
:1036600007F024FB00F018FA00F040FD00F0E2FC47
:1036700000F064FB00F0E0FB00F052FA00F00CFDFB
:1036800000F0F8FA00F07AFA00F00CFC00F040FCD0
:1036900010218F4808F045F9642007F039FB01221A
:1036A00020218C4808F025F91021894808F039F9C3
:1036B00000224FF40041874808F01BF90A2007F068
:1036C00027FB01224FF40041824808F012F97F4B9A
:1036D0009B6843F010037D4A936010217C4808F0FA
:1036E00020F97D4805F038FD1021794808F019F9D6
:1036F000794805F075FC03461A46744B5A8310212D
:10370000734808F00EF97448FDF7D4FD1021704895
:1037100008F007F97148FEF729FA714B03221A7075
:103720006F4B704A5A606E4B30221A726C4B40F6E7
:10373000B832A3F822216A4B0022DA60684B6A4A49
:10374000C3F81821664B0422A3F82421644B0122FC
:1037500083F84422624810F06DFD614810F014FEB9
:10376000624B03221A70614B614A5A605F4B3022F0
:103770001A725E4B40F6B832A3F822215B4B554AD1
:10378000DA605A4B4FF480621A82584B594AC3F898
:103790001821564B0422A3F82421544B012283F80C
:1037A0004422524810F046FD504810F0EDFD0CF058
:1037B000D5FD514A002101200CF00EFF03464F4A6F
:1037C00013604F4A012101200CF006FF03464D4AC9
:1037D00013604D4A002101200CF0FEFE03464B4AC7
:1037E00013604B4A0C2101200DF050F80346494A62
:1037F0001360494A062108200DF048F80346474A5D
:103800001360474A002147480CF00EFE0346464A23
:103810001360464A002146480CF006FE0346454A1E
:103820001360454A002145480CF0FEFD0346444A1A
:103830001360444A002144480CF0F6FD0346434A15
:103840001360434A002143480CF0EEFD0346424A10
:103850001360424A002142480CF0E6FD0346414A0B
:103860001360414A002141480CF0DEFD0346404A06
:103870001360404A184940480CF0D6FD03463F4AC1
:1038800013603F4A00213F480CF0CEFD03463E4AFC
:103890001360FFF71BFB10210D4808F042F80023CE
:1038A000FB600023BB6074E02021094808F00AF89F
:1038B0000346002B02D0BB680133BB60BB68052BFD
:1038C00064DD024B01221A7666E000BF600800202A
:1038D00000080140000C01400C010020E400002021
:1038E000A403002010030020EC050020F0050020B8
:1038F00058030020380800201078050848080020E8
:103900004478050850080020B4780508B008002065
:1039100068770508000100209C780508AC080020A5
:10392000807705082D860408A0030020A4770508E9
:10393000DD6C04083C080020C8770508F5840408FD
:103940004008002044770508612A0408FC00002094
:10395000EC77050851850408440800202078050804
:10396000956B04084C08002054780508756C040811
:10397000540800202077050899180408CC0000207E
:1039800078780508818A0408A8080020FB680133BC
:10399000FB60FB68092B87DDFEF73EFAFEF724FB90
:1039A0001021364807F0BDFFFEF7B6FE03461A4663
:1039B000334B1A701021314807F0B3FF0022002169
:1039C000304805F0A1FA03461A462F4B9A80882208
:1039D0002E492C4805F096FC03462D491846FDF764
:1039E00021FA03461846FDF7F9FB03461AB2264BA7
:1039F0001A8089222549234805F084FC034624497E
:103A00001846FDF70FFA03461846FDF70DFC03466E
:103A10009AB21D4B5A801021184807F082FF0022ED
:103A20000021184805F070FA03461A46164BDA8052
:103A3000144805F0F3FA78607B6804331B68184675
:103A400012F03CFD03461846FDF7EEFB03469AB222
:103A50000D4B5A830C4B4FF461725A821021074868
:103A600007F05FFF0B480AF07FFB04F06FFF03F0E5
:103A700047F90CF0A5FC00BFFDE700BF00080140BE
:103A8000F80000200C01002060080020C008002081
:103A900000007A448002002080B590B000AF07F1AA
:103AA000180328220021184611F0ACFD3B1D00220E
:103AB0001A605A609A60DA601A610123BB614FF4A0
:103AC0008033FB6100233B620123BB6202237B63E3
:103AD0004FF48033BB634FF48023FB6307F118037B
:103AE000184609F0B3FD0346002B01D004F028FF6F
:103AF0000F237B600223BB600023FB6000233B613C
:103B000000237B613B1D002118460AF021F8034683
:103B1000002B01D004F014FF00BF4037BD4680BD2C
:103B200080B500AF124B134A1A60114B124A5A600B
:103B30000F4B00229A600E4B0022DA600C4B4FF4C0
:103B400080421A610A4B00225A61094B00229A6195
:103B5000074B0022DA61064B00221A62044807F084
:103B60001BFF0346002B01D004F0EAFE00BF80BD1E
:103B70000C01002000540040A086010080B58EB0EA
:103B800000AF07F1300300221A605A6007F12003EA
:103B900000221A605A609A60DA603B1D00221A60A7
:103BA0005A609A60DA601A615A619A61304B4FF03C
:103BB00080421A602E4B17225A602D4B00229A60C9
:103BC0002B4B4FF6FF72DA60294B00221A61284B0B
:103BD00080229A6126480AF0A1FC0346002B01D0FE
:103BE00004F0AEFE22480AF01FFB0346002B01D072
:103BF00004F0A6FE00233B6300237B6307F1300340
:103C000019461B480BF0DAFB0346002B01D004F0E9
:103C100097FE00233B6201237B620023BB620423E7
:103C2000FB6207F120030422194611480AF0E8FE5E
:103C30000346002B01D004F083FE60237B6040F636
:103C4000B733BB600023FB6004237B613B1D0C2268
:103C5000194607480AF070FF0346002B01D004F014
:103C60006FFE034805F01CFF00BF3837BD4680BD1E
:103C70006001002080B58AB000AF07F12003002268
:103C80001A605A603B1D00221A605A609A60DA601E
:103C90001A615A619A61274B274A1A60254B1722ED
:103CA0005A60244B00229A60224B40F2E732DA60DD
:103CB000204B00221A611F4B80229A611D480AF096
:103CC000B3FA0346002B01D004F03AFE00233B6216
:103CD00000237B6207F12003194616480BF06EFBA8
:103CE0000346002B01D004F02BFE60237B6064238D
:103CF000BB600023FB6000237B613B1D0022194653
:103D00000C480AF019FF0346002B01D004F018FEFE
:103D10003B1D0422194607480AF00EFF0346002BFC
:103D200001D004F00DFE034805F0BAFE00BF2837AD
:103D3000BD4680BDA80100200008004080B58EB0BF
:103D400000AF07F1300300221A605A6007F1200328
:103D500000221A605A609A60DA603B1D00221A60E5
:103D60005A609A60DA601A615A619A61304B314A3E
:103D70001A602F4B17225A602D4B00229A602C4B51
:103D80004FF6FF72DA602A4B00221A61284B80221C
:103D90009A6127480AF0C2FB0346002B01D004F0C9
:103DA000CFFD23480AF040FA0346002B01D004F06F
:103DB000C7FD00233B6300237B6307F130031946F3
:103DC0001B480BF0FBFA0346002B01D004F0B8FDB2
:103DD00000233B6201237B620023BB620423FB625E
:103DE00007F120030022194611480AF009FE034694
:103DF000002B01D004F0A4FD60237B6040F6B733B4
:103E0000BB600023FB6004237B613B1D0422194639
:103E100007480AF091FE0346002B01D004F090FD04
:103E2000034805F03DFE00BF3837BD4680BD00BFEA
:103E3000F0010020000C004080B582B000AF3B468E
:103E400000221A605A60154B154A1A60134BEF2274
:103E50005A60124B00229A60104B40F23512DA6021
:103E60000E4B80229A610D480AF008F90346002B98
:103E700001D004F065FD20233B6000237B603B46BE
:103E8000194606480BF09AFA0346002B01D004F0BD
:103E900057FD00BF0837BD4680BD00BF3802002077
:103EA0000010004080B582B000AF3B4600221A608F
:103EB0005A60154B154A1A60134B17225A60124B61
:103EC00000229A60104B4FF6FF72DA600E4B802290
:103ED0009A610D480AF0D2F80346002B01D004F095
:103EE0002FFD20233B6000237B603B46194606489C
:103EF0000BF064FA0346002B01D004F021FD00BF53
:103F00000837BD4680BD00BF80020020001400407D
:103F100080B592B000AF07F1400300221A605A60EA
:103F200007F1240300221A605A609A60DA601A616D
:103F30005A619A613B1D20220021184611F062FB54
:103F40003A4B3B4A1A60394B17225A60374B0022D2
:103F50009A60364B40F2E732DA60344B00221A6145
:103F6000324B00225A61314B80229A612F480AF06D
:103F70005BF90346002B01D004F0E2FC20233B64F4
:103F800000237B6407F14003194628480BF016FA1A
:103F90000346002B01D004F0D3FC60237B62002396
:103FA000BB620023FB6208233B6300237B63002387
:103FB000BB630023FB6307F12403002219461B485F
:103FC0000AF0BAFD0346002B01D004F0B9FC07F15A
:103FD00024030422194615480AF0AEFD0346002BBF
:103FE00001D004F0ADFC4FF400637B604FF48063BC
:103FF000BB600023FB6000233B6100237B614FF427
:104000000053BB6100233B623B1D194607480BF080
:1040100041FA0346002B01D004F092FC034805F05E
:104020003FFD00BF4837BD4680BD00BFC80200202D
:104030000034014080B500AF154B164A1A60144B8E
:104040004FF496425A60124B00229A60104B0022A5
:10405000DA600F4B00221A610D4B0C225A610C4B97
:1040600000229A610A4B0022DA6109480BF075FAC6
:104070000346002B01D004F063FC054B1B685A6912
:10408000034B1B6842F001025A6100BF80BD00BFB4
:10409000100300200038014080B500AF114B124AD8
:1040A0001A60104B4FF496425A600E4B00229A60F1
:1040B0000C4B0022DA600B4B00221A61094B0C22D8
:1040C0005A61084B00229A61064B0022DA610548CA
:1040D0000BF043FA0346002B01D004F031FC00BF83
:1040E00080BD00BF580300200048004080B588B064
:1040F00000AF07F1100300221A605A609A60DA607C
:10410000774B9B69764A43F010039361744B9B692C
:1041100003F01003FB60FB68714B9B69704A43F02E
:10412000200393616E4B9B6903F02003BB60BB6867
:104130006B4B9B696A4A43F004039361684B9B692C
:1041400003F004037B607B68654B9B69644A43F022
:1041500008039361624B9B6903F008033B603B6873
:10416000002242F20F215F4807F0C3FB002241F218
:1041700010115D4807F0BDFB012220215A4807F0CD
:10418000B8FB002243F22241584807F0B2FB01225B
:104190004CF21001554807F0ACFB01224FF480515E
:1041A000504807F0A6FB01220421514807F0A1FB6B
:1041B0004FF408533B6101237B610023BB61022361
:1041C000FB6107F110031946464807F0E7F941F291
:1041D0000F033B6111237B610023BB610223FB6161
:1041E00007F1100319463F4807F0D8F948F6440391
:1041F0003B6100237B610023BB6107F1100319467B
:10420000394807F0CBF941F210133B6101237B6180
:104210000023BB610223FB6107F1100319463248FA
:1042200007F0BCF920233B6111237B610023BB61B4
:104230000223FB6107F1100319462B4807F0AEF982
:104240004FF498733B6100237B610023BB6107F14E
:1042500010031946234807F0A1F943F202433B61DA
:1042600001237B610023BB610223FB6107F1100383
:1042700019461E4807F092F940F604033B610023FB
:104280007B610023BB6107F110031946174807F053
:1042900085F94CF230033B6111237B610023BB6144
:1042A0000223FB6107F110031946104807F076F965
:1042B00004233B6111237B610023BB610223FB616B
:1042C00007F1100319460A4807F068F9094B9B6883
:1042D00043F48063074A936000BF2037BD4680BD2A
:1042E000001002400010014000080140000C014095
:1042F000001401406008002080B483B000AF034682
:104300000A46FB801346BB80FB880F2B0FDC002B7B
:1043100011DB1A464CF28703D34003F00103002B54
:1043200014BF01230023DBB2002B06D103E0A3F569
:104330004053042B01D9022309E000BFBB88002BA6
:1043400002D0BB887D2B01D9032300E0002318464F
:104350000C37BD4680BC704780B483B000AF0346C5
:104360000A46FB801346BB80FB88022B02DC002B35
:1043700005DA02E0043B012B01D9022309E000BF6A
:10438000BB88002B02D0BB887D2B01D9032300E022
:10439000002318460C37BD4680BC704780B483B0FC
:1043A00000AF03460A46FB801346BB80FB885C2BAC
:1043B0001BDC502B2ADA392B17DC242B04DA052BD3
:1043C00010DC002B22DA10E0243B234A22FA03F30C
:1043D00003F00103002B14BF01230023DBB2002BE9
:1043E00014D102E0143B072B10D9FB885F2B02D9B4
:1043F000FB886B2B0CD9FB88B3F55A4F04D3FB8891
:104400004DF62022934205D9022320E000BF02E0AE
:1044100000BF00E000BFFB88B3F55A4F0ED3FB8806
:104420004DF62022934209D8BB88002B02D0BB88CE
:10443000152B01D903230AE0002308E0BB88002BD9
:1044400002D0BB887D2B01D9032300E0002318464E
:104450000C37BD4680BC704777FF3F0080B483B007
:1044600000AF03460A46FB801346BB80FB884FF62D
:10447000FF72934231D0FB881B0A9BB2DBB2912BB7
:104480002BD0FB881B0A9BB2DBB2812B25D0FB888B
:104490001B0A9BB2DBB2832B1FD0FB881B0A9BB28B
:1044A000DBB28B2B19D0FB881B0A9BB2DBB2EC2B47
:1044B00013D0FB881B0A9BB2DBB2442B0DD0FB88C8
:1044C0001B0A9BB2DBB2D02B07D0FB881B0A9BB226
:1044D000DBB2292B01D002234EE0FB884FF6FF729E
:1044E000934204D1BB88012B45D0032344E0FB88D1
:1044F0001B0A9BB2DBB2912B05D1FB88DBB2002BF0
:1045000039D0032338E0FB881B0A9BB2DBB2812B36
:104510000BD0FB881B0A9BB2DBB2832B05D0FB8838
:104520001B0A9BB2DBB28B2B25D1FB88DBB2882B1D
:1045300021D0FB88DBB2572B1DD0FB88DBB2582B78
:1045400019D0FB88DBB2D12B15D0FB88DBB2892BCD
:1045500011D0FB88DBB28C2B0DD0FB88DBB24A2B51
:1045600009D0FB88DBB2972B05D0FB88DBB26B2B25
:1045700001D0032300E0002318460C37BD4680BC61
:10458000704780B483B000AF03460A46FB801346F1
:10459000BB80FB8843F20402934209DCB3F5405F21
:1045A00008DA002B06D0002B02DB053B022B01D9D9
:1045B000022323E000BFFB8843F20302934204D0AE
:1045C000FB8843F2040293420DD1BB881B0A9BB2C5
:1045D000DBB2FF2B10D0BB881B0A9BB2DBB2002BD7
:1045E0000AD003230AE0BB88B3F57F4F05D0BB8810
:1045F000002B02D0032301E000BF002318460C3734
:10460000BD4680BC7047000080B485B000AF034653
:104610000A46FB801346BB80FB8843F202029342AA
:1046200000F3C580B3F5405F80F2C38042F24202DE
:10463000934200F3BC80B3F5005F0CDC5C2B00F30D
:10464000B6805A2B80F2B5801B2B00F3AC80002B78
:1046500080F29C80ABE0A3F50053013B412B00F2BC
:10466000A68001A252F823F0B3470408B347040818
:10467000AF470408AF470408AF470408AF47040832
:10468000AF470408AF470408AF470408AF47040822
:10469000AF470408AF470408AF470408AF47040812
:1046A000AF470408AF470408B3470408B3470408FA
:1046B000AF470408AF470408AF470408AF470408F2
:1046C000AF470408AF470408AF470408AF470408E2
:1046D000AF470408AF470408AF470408AF470408D2
:1046E000AF470408AF470408B3470408B3470408BA
:1046F000AF470408AF470408AF470408AF470408B2
:10470000AF470408AF470408AF470408AF470408A1
:10471000AF470408AF470408AF470408AF47040891
:10472000AF470408AF470408B3470408B347040879
:10473000AF470408AF470408AF470408AF47040871
:10474000AF470408AF470408AF470408AF47040861
:10475000AF470408AF470408AF470408AF47040851
:10476000AF470408AF470408B3470408B347040839
:10477000243BCD4A22FA03F303F00103002B14BFBC
:1047800001230023DBB2002B13D110E01A46C74BE4
:10479000D34003F00103002B14BF01230023DBB23D
:1047A000002B06D103E0392B01DC242BE0DA0223B5
:1047B00078E200BFFB8843F20202934200F3718269
:1047C000B3F5405F80F22C8142F24102934200F047
:1047D000388142F24102934200F363825C2B00F382
:1047E0000D81132B6EDA5CE2A3F50053013B312BF4
:1047F00000F2578201A252F823F000BF374A0408A2
:10480000374A0408A34C0408A34C0408A34C04082A
:10481000A34C0408A34C0408A34C0408A34C0408AC
:10482000A34C0408A34C0408A34C0408A34C04089C
:10483000A34C0408A34C0408A34C0408434A0408EE
:10484000434A0408A34C0408A34C0408A34C0408DE
:10485000A34C0408A34C0408A34C0408A34C04086C
:10486000A34C0408A34C0408A34C0408A34C04085C
:10487000A34C0408A34C0408A34C0408434A0408AE
:10488000A34C0408A34C0408A34C0408A34C04083C
:10489000A34C0408A34C0408A34C0408A34C04082C
:1048A000A34C0408A34C0408A34C0408A34C04081C
:1048B000A34C0408A34C0408A34C0408434A04086E
:1048C000434A0408133B492B00F2EB8101A252F842
:1048D00023F000BF114A0408754A0408754A040809
:1048E000754A0408754A0408A34C0408754A04086C
:1048F0005F4B0408894B0408A34C0408A34C04082C
:10490000A34C0408A34C0408A34C0408A34C0408BB
:10491000A34C0408A34C0408AF4B0408C34B040881
:10492000A34C0408A34C0408754A0408754A0408FB
:10493000A34C0408A34C0408A34C0408A34C04088B
:10494000A34C0408A34C0408A34C0408A34C04087B
:10495000A34C0408A34C0408A34C0408D74B040838
:10496000A34C0408A34C0408A34C04084B4C0408B3
:10497000A34C0408A34C0408A34C0408A34C04084B
:10498000A34C0408A34C0408A34C0408A34C04083B
:10499000A34C0408A34C0408A34C0408A34C04082B
:1049A000A34C0408A34C0408A34C0408A34C04081B
:1049B000A34C0408A34C0408A34C0408A34C04080B
:1049C000A34C0408A34C0408A34C0408A34C0408FB
:1049D000A34C0408A34C0408A34C0408A34C0408EB
:1049E000A34C0408A34C0408A34C0408A34C0408DB
:1049F000E74B04080D4C0408334C040842F2320221
:104A0000934200F34E81B3F5005F3FF7EDAE48E10E
:104A1000BB8840F21F22934200F01C81032341E136
:104A2000BB88B3F57F4F00F01781BB88002B00F0E7
:104A30001381032336E1BB88052B40F20F8103234A
:104A400030E1BB881B0A9BB2FB73BB88BB73BB7B8B
:104A5000002B01D1032325E197F90F30002B80F2C1
:104A6000FF80BB7B072B03D9BB7B0F2B40F2F88069
:104A7000032317E1BB883B81B7F908307D2B06DDA6
:104A8000B7F9083013F1370F01DA03230AE1FB8885
:104A9000142B0FD1064B5B881BB2B7F908209A4242
:104AA000C0F2E0800323FDE0FB0022000100F80ECD
:104AB00004000020FB88152B09D17D4B1B881BB2FD
:104AC000B7F908209A4200F3CF800323EAE0FB887D
:104AD000162B09D1764BDB881BB2B7F908209A4216
:104AE000C0F2C4800323DDE0FB88172B09D1704B93
:104AF0009B881BB2B7F908209A4200F3B9800323C0
:104B0000D0E0FB88282B02D0FB88292B18D1B7F9DD
:104B10000830674A528912B21344654AD28812B2E9
:104B200093420BDCB7F90830614A528912B29B1AE2
:104B30005F4A928812B2934280F29C800323B1E0D4
:104B4000FB88192B40F09880B7F90830072B04DC5C
:104B5000B7F90830002B00F391800323A2E0BB8853
:104B600041F65732934200F28B80BB8844F2506288
:104B7000934240F28580BA884D4BDB891BB20233E9
:104B80009A427DDC03238DE0BB8841F65732934285
:104B900078D8BB8844F25062934273D9444B9B89C6
:104BA0001BB25A1EBB889A426CDD03237AE0404B4D
:104BB0005B8A9BB2A3F16302BB889A4264DC032345
:104BC00070E03B4B1B8A9BB203F16302BB889A42A5
:104BD0005CDB032366E0BB88002B02D0BB880A2B7A
:104BE00056D903235EE0BB881B0A9BB2FB72BB88CD
:104BF000BB72FB7A632B01D9032353E0BB7A002BF2
:104C000002D0BB7A0C2B45D903234BE0BB881B0A8F
:104C10009BB27B73BB883B737B7B002B02D07B7B7F
:104C20001F2B01D903233DE03B7B172B34D90323F2
:104C300038E0BB881B0A9BB2DBB23B2B03DCBB8892
:104C4000DBB23B2B2ADD03232CE0BB88072B27D9C3
:104C5000032327E000BF24E000BF22E000BF20E0E4
:104C600000BF1EE000BF1CE000BF1AE000BF18E05C
:104C700000BF16E000BF14E000BF12E000BF10E06C
:104C800000BF0EE000BF0CE000BF0AE000BF08E07C
:104C900000BF06E000BF04E000BF02E000BF00E08C
:104CA00000BF002318461437BD4680BC704700BFC4
:104CB0000400002080B584B000AF78603960002324
:104CC000FB730223BB7300237B737B68042283F88E
:104CD00013213B689B88DB089BB2DAB23B689B8858
:104CE00003F007039BB2002B14BF01230023DBB2A8
:104CF0001846BB7B591CB97319461318DAB27B6886
:104D00000B44DA743B685B887B813EE07B7B082B3D
:104D100014D1BB7B5A1CBA731A467B681344FA7BC6
:104D2000DA747B6893F813310133DAB27B6883F865
:104D300013210023FB7300237B7302E0FB7B5B08E2
:104D4000FB733B681B78012B0AD17B89184600F066
:104D500069FC0346002B14BF01230023DBB209E0EA
:104D60007B89184600F02EFD0346002B14BF01235B
:104D70000023DBB2002B02D0FB7B803BFB737B7BF1
:104D800001337B737B8901337B817A893B685B8844
:104D900019463B689B880B449A42B7DB7B7B002B10
:104DA0000BD0FA7B7B7BC3F1080342FA03F3FB735E
:104DB000BB7B7A681344FA7BDA747B6893F813310F
:104DC0000233DBB27B7297F9093018461037BD46C3
:104DD00080BD80B584B000AF786039600223FB737A
:104DE0007B68032283F813213B689B88DAB2FB7B44
:104DF000591CF97319465300DAB27B680B44DA7414
:104E00003B685B88BB8125E0BB89184600F028FD24
:104E100003463B81B7F908301B121AB2FB7B591CC1
:104E2000F9731946D2B27B680B44DA74FB7B5A1CC7
:104E3000FA7319463B89DAB27B680B44DA747B68F3
:104E400093F813310233DAB27B6883F81321BB89FC
:104E50000133BB81BA893B685B8819463B689B88F4
:104E60000B449A42D0DB7B6893F813310233DBB2F8
:104E7000FB7297F90B3018461037BD4680BD000015
:104E800080B58CB004AF786039600023FB773B6855
:104E90005B884FF6FF72934211D13B689B88012BD0
:104EA0000DD17B6802225A757B6820229A757B6837
:104EB0000022DA757B68052283F813216EE33B68D4
:104EC0005B881B0A9BB2DBB2EC2B00F06283EC2BFD
:104ED00000F36483D02B00F0B380D02B00F35E830B
:104EE000912B00F35B83812B06DA292B00F053838F
:104EF000442B00F0248351E3813B102B00F24E83BE
:104F000001A252F823F000BF7D4F04089D5504080C
:104F1000D14F04089D5504089D5504089D5504086B
:104F20009D5504089D5504089D5504089D55040889
:104F3000FF4F04089D5504089D5504089D5504081D
:104F40009D5504089D5504084D4F04083B685B8837
:104F50007B773B689A887B7F1946344803F0D4FFFF
:104F600003467B83B7F91A301B121BB2DAB27B6897
:104F7000DA757B8BDAB27B681A760FE33B685B8865
:104F8000DBB2862B0DD17B681733294A12691A6070
:104F90007B6893F813310233DAB27B6883F813210C
:104FA000FCE23B685B88DBB21A4622491F4804F0EA
:104FB000A9F90346FB607B681733FA681A607B68BF
:104FC00093F813310233DAB27B6883F81321E5E2F8
:104FD0003B685B88DBB21A461749144804F092F923
:104FE0000346FB607B681733FA681A607B6893F8A6
:104FF00013310233DAB27B6883F81321CEE23B68C7
:105000005B88DBB21A460D49084804F07BF9034679
:10501000FB607B681733FA681A607B6893F813317A
:105020000233DAB27B6883F81321B7E20C01002067
:1050300008090020C0080020D8080020F00800203F
:105040000023FB7200233B817B68042283F8132139
:10505000FB7F0133FB77FB7F0233AC4A11787A6820
:1050600013440A46DA740021A948FCF7FDF8034608
:10507000BB77BB7F002B21D0FB7F0133FB77FB7F0E
:1050800002337A681344FF22DA747B6893F8133191
:105090000133DAB27B6883F81321FB7F0133FB779E
:1050A000FB7F02337A681344B022DA747B6893F88A
:1050B00013310133DAB27B6883F81321BB7F002BF5
:1050C00031D1282302930123019307F10B030093AD
:1050D00001230622D0218E4807F006FA0346BB774B
:1050E000FB7F0133FB77FB7F02337A681344D122C5
:1050F000DA747B6893F813310133DAB27B6883F892
:105100001321FB7F0133FB77FB7F0233F97A7A6847
:1051100013440A46DA747B6893F813310133DAB228
:105120007B6883F81321BB7F002B2AD1202178488C
:10513000FCF79AF80346BB77BB7F002B21D0FB7F9F
:105140000133FB77FB7F02337A681344FF22DA7462
:105150007B6893F813310133DAB27B6883F813214B
:10516000FB7F0133FB77FB7F02337A681344B22263
:10517000DA747B6893F813310133DAB27B6883F811
:105180001321BB7F002B36D10023FB72282302930F
:105190000123019307F10B03009301230022D02187
:1051A0005B4807F0A1F90346BB77BB7F002B22D1F8
:1051B000FB7F0133FB77FB7F02337A681344D222F3
:1051C000DA747B6893F813310133DAB27B6883F8C1
:1051D0001321FB7F0133FB77FB7F0233F97A7A6877
:1051E00013440A46DA747B6893F813310133DAB258
:1051F0007B6883F81321BB7F002B36D10023FB7221
:10520000282302930123019307F10B030093012349
:105210000122D0213E4807F067F90346BB77BB7FE8
:10522000002B22D1FB7F0133FB77FB7F02337A68AF
:105230001344D322DA747B6893F813310133DAB262
:105240007B6883F81321FB7F0133FB77FB7F0233FD
:10525000F97A7A6813440A46DA747B6893F8133152
:105260000133DAB27B6883F81321BB7F002B36D180
:105270000023FB72282302930123019307F10B0300
:10528000009301230222D021214807F02DF9034683
:10529000BB77BB7F002B22D1FB7F0133FB77FB7FEA
:1052A00002337A681344D422DA747B6893F813319A
:1052B0000133DAB27B6883F81321FB7F0133FB777C
:1052C000FB7F0233F97A7A6813440A46DA747B6802
:1052D00093F813310133DAB27B6883F81321BB7F73
:1052E000002B4CD1322302930223019307F10803D0
:1052F000009301231022D021054807F0F5F803465A
:10530000BB77BB7F002B3AD104E000BFD000002068
:105310000C010020FB7F0133FB77FB7F02337A68AF
:105320001344D522DA747B6893F813310133DAB26F
:105330007B6883F81321FB7F0133FB77FB7F02330C
:10534000397A7A6813440A46DA747B6893F8133121
:105350000133DAB27B6883F81321FB7F0133FB77DB
:10536000FB7F0233797A7A6813440A46DA747B68E1
:1053700093F813310133DAB27B6883F81321BB7FD2
:10538000002B36D10023FB722823029301230193C3
:1053900007F10B03009301231422D021854807F065
:1053A000A3F80346BB77BB7F002B22D1FB7F0133E1
:1053B000FB77FB7F02337A681344D622DA747B686A
:1053C00093F813310133DAB27B6883F81321FB7F42
:1053D0000133FB77FB7F0233F97A7A6813440A467C
:1053E000DA747B6893F813310133DAB27B6883F89F
:1053F0001321BB7F002B36D10023FB72282302939D
:105400000123019307F10B03009301231522D021FF
:10541000684807F069F80346BB77BB7F002B22D1B1
:10542000FB7F0133FB77FB7F02337A681344D7227B
:10543000DA747B6893F813310133DAB27B6883F84E
:105440001321FB7F0133FB77FB7F0233F97A7A6804
:1054500013440A46DA747B6893F813310133DAB2E5
:105460007B6883F81321BB7F002B2AD10021514890
:10547000FBF7FAFE0346BB77BB7F002B21D0FB7FF7
:105480000133FB77FB7F02337A681344FF22DA741F
:105490007B6893F813310133DAB27B6883F8132108
:1054A000FB7F0133FB77FB7F02337A681344B02222
:1054B000DA747B6893F813310133DAB27B6883F8CE
:1054C0001321BB7F002B36D10023FB7228230293CC
:1054D0000123019307F10B03009301230722D0213D
:1054E000344807F001F80346BB77BB7F002B22D17D
:1054F000FB7F0133FB77FB7F02337A681344D822AA
:10550000DA747B6893F813310133DAB27B6883F87D
:105510001321FB7F0133FB77FB7F0233F97A7A6833
:1055200013440A46DA747B6893F813310133DAB214
:105530007B6883F813217B68FA7F5A752EE01E4B37
:105540005B8B9BB2012B28D01A4803F067FD786172
:105550007B6817337A6912681A607B6893F8133195
:105560000233DAB27B6883F813217B6893F8133136
:1055700010337A68134403337A69043212681A606C
:105580007B6893F813310433DAB27B6883F8132114
:1055900003E000BF02E000BF00E000BF7B6893F8BB
:1055A00013310233DBB2FB7497F9133018462037FE
:1055B000BD4680BD0C0100206008002080B584B08D
:1055C00000AF786039603B685A883B689B88194611
:1055D000104600F0A1FD7B6893F813310233DBB273
:1055E000FB7397F90F3018461037BD4680BD80B564
:1055F00084B000AF786039603B685A883B689B880C
:105600001BB21946104600F063FE7B6893F8133115
:105610000233DBB2FB7397F90F3018461037BD46E3
:1056200080BD000080B582B000AF0346FB80FB88E0
:105630000F2B3BDC002B13DAB8E0A3F54053042B0F
:1056400000F2B48001A252F823F000BF41570408D1
:1056500059570408715704088557040899570408D6
:105660000F2B00F2A38001A252F823F0BD560408CC
:10567000D1560408E5560408AD570408AD57040890
:10568000F95604082357040811570408AD570408B5
:10569000AD570408AD570408AD570408AD570408CA
:1056A000AD570408395704083D57040843F2040273
:1056B00093427BDCB3F5405FBFDA77E03E4B9B68FB
:1056C00003F01003002B14BF01230023DBB26EE0B4
:1056D000394B9B6803F00403002B14BF0123002304
:1056E000DBB264E0344B9B6803F00803002B14BF6B
:1056F00001230023DBB25AE04FF400712F4806F07B
:10570000E1F80346002B14BF01230023DBB24EE077
:10571000294B1B7DDBB2002B14BF01230023DBB21E
:1057200045E02021264806F0CDF80346002B14BFA3
:1057300001230023DBB23AE0002338E0002336E007
:105740004FF400511D4806F0BDF80346002B14BF6E
:1057500001230023DBB22AE04FF48051184806F001
:10576000B1F80346002B14BF01230023DBB21EE077
:10577000114B9B6803F48063002B14BF01230023AB
:10578000DBB214E00C4B9B6803F00403002B14BF46
:1057900001230023DBB20AE0074B9B6803F00803F8
:1057A000002B14BF01230023DBB200E000231846C6
:1057B0000837BD4680BD00BF6008002000100140D2
:1057C0000008014080B582B000AF0346FB80FB8833
:1057D000072B3BD801A252F823F000BFFD57040865
:1057E00001580408135804082B5804082F580408BB
:1057F000335804084558040849580408012326E092
:10580000154BDB7DDBB2002B14BF01230023DBB281
:105810001DE04FF48071114806F054F80346002B48
:1058200014BF01230023DBB211E000230FE00023AB
:105830000DE0094B5B7DDBB2002B14BF012300237D
:10584000DBB204E0002302E0002300E0002318465E
:105850000837BD4680BD00BF600800200010014031
:1058600080B58AB000AF0346FB80FB886B2B00F34A
:105870000181002B20DA00F014BCA3F55A430A2B57
:1058800000F20F8401A252F823F000BF155E040855
:10589000315E04084D5E0408695E0408855E0408F4
:1058A000A15E0408BD5E0408D95E0408F55E040824
:1058B000115F04082B5F04086B2B00F2F28301A236
:1058C00052F823F0895A0408935A0408DB5A040852
:1058D000235B04082B5B04083B5B0408A3600408FB
:1058E000A3600408A3600408A3600408A36004087C
:1058F000A3600408A3600408A3600408A36004086C
:10590000A3600408A3600408A3600408A36004085B
:10591000A36004084F5B0408575B04085F5B04083E
:10592000675B04086F5B0408775B04087F5B04080F
:10593000875B0408A3600408A3600408A36004084C
:10594000A3600408A3600408A3600408A36004081B
:10595000A36004088F5B0408995B0408A35B040838
:10596000A3600408A95B0408B15B0408B95B0408E0
:10597000A3600408C35B0408CD5B0408D75B04087C
:10598000E15B0408EB5B0408F55B0408FF5B0408BB
:10599000095C0408115C0408155C04081F5C040819
:1059A0002B5C0408355C04083F5C0408A360040811
:1059B000A3600408A3600408A3600408A3600408AB
:1059C000A3600408A3600408A3600408A36004089B
:1059D000A3600408A3600408A3600408A36004088B
:1059E000A3600408A3600408A3600408A36004087B
:1059F000A3600408A3600408A3600408A36004086B
:105A0000A3600408495C0408515C04085B5C04085A
:105A1000655C04088B5C0408B35C0408095D040839
:105A2000315D04083B5D0408435D04084D5D0408D6
:105A3000815D0408D75D0408A3600408A36004081E
:105A4000A3600408455F04084D5F0408595F04081B
:105A5000635F04086D5F0408D55F0408F15F040804
:105A60000D600408296004084560040861600408AA
:105A70007D6004084DF60A22934200F31283B3F5C9
:105A80005A4FBFF6FAAE0CE3934B5B8A9BB21BB244
:105A900038E30023FB84002387F8253016E097F8CD
:105AA00025309BB21846FFF78DFE0346002B08D029
:105AB00097F82530012202FA03F39AB2FB8C1344C3
:105AC000FB8497F82530013387F8253097F8253087
:105AD0000F2BE4D9B7F9263014E30023FB8400230D
