:020000040804EE
:1000000000000120CDB204082DB0040835B004086A
:100010003DB0040845B004084DB0040800000000DD
:100020000000000000000000000000004140050842
:1000300055B0040800000000214205086942050887
:1000400015B3040815B3040815B3040815B3040860
:1000500015B3040815B3040815B3040815B3040850
:1000600015B3040815B3040815B3040815B3040840
:1000700015B3040815B3040815B3040815B3040830
:1000800015B3040815B3040815B3040815B3040820
:1000900015B3040815B3040815B3040815B3040810
:1000A00015B3040815B3040815B3040815B3040800
:1000B00061B00408C9B0040815B3040815B30408F6
:1000C00015B3040815B3040815B3040815B30408E0
:1000D00015B30408DDB0040815B30408F1B0040832
:1000E00015B3040815B3040815B3040815B30408C0
:1000F00005B1040815B3040815B3040815B30408C2
:1001000015B3040815B3040811B1040815B30408A5
:1001100015B3040815B3040815B3040879B104082D
:1001200015B3040815B3040815B3040815B304087F
:1001300000000000000000000000000000000000BF
:1001400000000000000000000000000000000000AF
:10015000000000000000000000000000000000009F
:10016000000000000000000000000000000000008F
:10017000000000000000000000000000000000007F
:10018000000000000000000000000000000000006F
:10019000000000000000000000000000000000005F
:1001A000000000000000000000000000000000004F
:1001B000000000000000000000000000000000003F
:1001C000000000000000000000000000000000002F
:1001D000000000000000000000000000000000001F
:0401E0005FF8E0F1F3
:1001F00010B5054C237833B9044B13B10448AFF361
:1002000000800123237010BDB0000020000000001A
:10021000107C050808B5034B1BB103490348AFF335
:10022000008008BD00000000B4000020107C05081C
:10023000034613F8012B002AFBD1181A0138704726
:1002400081F0004102E000BF83F0004330B54FEA87
:1002500041044FEA430594EA050F08BF90EA020FF4
:100260001FBF54EA000C55EA020C7FEA645C7FEA87
:10027000655C00F0E2804FEA5454D4EB5555B8BFAA
:100280006D420CDD2C4480EA020281EA030382EA1B
:10029000000083EA010180EA020281EA0303362DAD
:1002A00088BF30BD11F0004F4FEA01314FF4801C80
:1002B0004CEA113102D0404261EB410113F0004F92
:1002C0004FEA03334CEA133302D0524263EB430349
:1002D00094EA050F00F0A780A4F10104D5F1200EE7
:1002E0000DDB02FA0EFC22FA05F2801841F1000142
:1002F00003FA0EF2801843FA05F359410EE0A5F116
:1003000020050EF1200E012A03FA0EFC28BF4CF046
:10031000020C43FA05F3C01851EBE37101F00045FC
:1003200007D54FF0000EDCF1000C7EEB00006EEB09
:100330000101B1F5801F1BD3B1F5001F0CD3490893
:100340005FEA30004FEA3C0C04F101044FEA4452EA
:1003500012F5800F80F09A80BCF1004F08BF5FEA71
:10036000500C50F1000041EB045141EA050130BD51
:100370005FEA4C0C404141EB0101013C28BFB1F563
:10038000801FE9D291F0000F04BF01460020B1FAAE
:1003900081F308BF2033A3F10B03B3F120020CDA81
:1003A0000C3208DD02F1140CC2F10C0201FA0CF05F
:1003B00021FA02F10CE002F11402D8BFC2F1200CC4
:1003C00001FA02F120FA0CFCDCBF41EA0C0190407A
:1003D000E41AA2BF01EB0451294330BD6FEA0404C3
:1003E0001F3C1CDA0C340EDC04F11404C4F12002AE
:1003F00020FA04F001FA02F340EA030021FA04F3C0
:1004000045EA030130BDC4F10C04C4F1200220FA16
:1004100002F001FA04F340EA0300294630BD21FA54
:1004200004F0294630BD94F0000F83F4801306BF1A
:1004300081F480110134013D4EE77FEA645C18BF0E
:100440007FEA655C29D094EA050F08BF90EA020FA5
:1004500005D054EA000C04BF1946104630BD91EA9D
:10046000030F1EBF0021002030BD5FEA545C05D1A0
:100470004000494128BF41F0004130BD14F58004DF
:100480003CBF01F5801130BD01F0004545F0FE4153
:1004900041F470014FF0000030BD7FEA645C1ABF88
:1004A000194610467FEA655C1CBF0B46024650EABF
:1004B000013406BF52EA033591EA030F41F40021EB
:1004C00030BD00BF90F0000F04BF0021704730B571
:1004D0004FF4806404F132044FF000054FF0000146
:1004E00050E700BF90F0000F04BF0021704730B507
:1004F0004FF4806404F1320410F0004548BF4042DC
:100500004FF000013EE700BF42004FEAE2014FEA30
:1005100031014FEA02701FBF12F07F4393F07F4F0B
:1005200081F06051704732F07F4208BF704793F00E
:100530007F4F04BF41F40021704730B54FF4607421
:1005400001F0004521F000411CE700BF50EA010224
:1005500008BF704730B54FF000050AE050EA0102CD
:1005600008BF704730B511F0004502D5404261EB3D
:1005700041014FF4806404F132045FEA915C3FF47E
:10058000D8AE4FF003025FEADC0C18BF03325FEA1B
:10059000DC0C18BF033202EBDC02C2F1200300FACC
:1005A00003FC20FA02F001FA03FE40EA0E0021FAF1
:1005B00002F11444BDE600BF70B54FF0FF0C4CF4DF
:1005C000E06C1CEA11541DBF1CEA135594EA0C0F91
:1005D00095EA0C0F00F0DEF82C4481EA030621EACC
:1005E0004C5123EA4C5350EA013518BF52EA033507
:1005F00041F4801143F4801338D0A0FB02CE4FF0B9
:100600000005E1FB02E506F00042E0FB03E54FF0E8
:100610000006E1FB03569CF0000F18BF4EF0010EE0
:10062000A4F1FF04B6F5007F64F5407404D25FEADC
:100630004E0E6D4146EB060642EAC62141EA55518F
:100640004FEAC52040EA5E504FEACE2EB4F1FD0CD1
:1006500088BFBCF5E06F1ED8BEF1004F08BF5FEA4F
:10066000500E50F1000041EB045170BD06F0004601
:1006700046EA010140EA020081EA0301B4EB5C04AE
:10068000C2BFD4EB0C0541EA045170BD41F48011A6
:100690004FF0000E013C00F3AB8014F1360FDEBFCB
:1006A000002001F0004170BDC4F10004203C35DAA7
:1006B0000C341BDC04F11404C4F1200500FA05F32A
:1006C00020FA04F001FA05F240EA020001F00042CB
:1006D00021F0004110EBD37021FA04F642EB060141
:1006E0005EEA430E08BF20EAD37070BDC4F10C046B
:1006F000C4F1200500FA04F320FA05F001FA04F22F
:1007000040EA020001F0004110EBD37041F100011A
:100710005EEA430E08BF20EAD37070BDC4F1200525
:1007200000FA05F24EEA020E20FA04F301FA05F28D
:1007300043EA020321FA04F001F0004121FA04F235
:1007400020EA020000EBD3705EEA430E08BF20EA05
:10075000D37070BD94F0000F0FD101F0004640003F
:1007600041EB010111F4801F08BF013CF7D041EAC1
:10077000060195F0000F18BF704703F000465200C5
:1007800043EB030313F4801F08BF013DF7D043EA96
:100790000603704794EA0C0F0CEA135518BF95EA4C
:1007A0000C0F0CD050EA410618BF52EA4306D1D1D3
:1007B00081EA030101F000414FF0000070BD50EAF2
:1007C000410606BF1046194652EA430619D094EA7C
:1007D0000C0F02D150EA013613D195EA0C0F05D166
:1007E00052EA03361CBF104619460AD181EA0301BA
:1007F00001F0004141F0FE4141F470014FF0000072
:1008000070BD41F0FE4141F4780170BD70B54FF00C
:10081000FF0C4CF4E06C1CEA11541DBF1CEA13558C
:1008200094EA0C0F95EA0C0F00F0A7F8A4EB05046E
:1008300081EA030E52EA03354FEA013100F0888065
:100840004FEA03334FF0805545EA131343EA12632E
:100850004FEA022245EA111545EA10654FEA0026E3
:100860000EF000419D4208BF964244F1FD0404F59C
:10087000407402D25B084FEA3202B61A65EB0305F8
:100880005B084FEA32024FF480104FF4002CB6EBB5
:10089000020E75EB030E22BFB61A754640EA0C0035
:1008A0005B084FEA3202B6EB020E75EB030E22BF75
:1008B000B61A754640EA5C005B084FEA3202B6EBB6
:1008C000020E75EB030E22BFB61A754640EA9C0075
:1008D0005B084FEA3202B6EB020E75EB030E22BF45
:1008E000B61A754640EADC0055EA060E18D04FEA03
:1008F000051545EA16754FEA06164FEAC30343EAA3
:1009000052734FEAC2025FEA1C1CC0D111F4801F6F
:100910000BD141EA00014FF000004FF0004CB6E768
:1009200011F4801F04BF01430020B4F1FD0C88BF07
:10093000BCF5E06F3FF6AFAEB5EB030C04BFB6EB12
:10094000020C5FEA500C50F1000041EB045170BD05
:100950000EF0004E4EEA113114EB5C04C2BFD4EB32
:100960000C0541EA045170BD41F480114FF0000EB6
:10097000013C90E645EA060E8DE60CEA135594EA32
:100980000C0F08BF95EA0C0F3FF43BAF94EA0C0F35
:100990000AD150EA01347FF434AF95EA0C0F7FF4AA
:1009A00025AF104619462CE795EA0C0F06D152EAFE
:1009B00003353FF4FDAE1046194622E750EA4106E2
:1009C00018BF52EA43067FF4C5AE50EA41047FF4F3
:1009D0000DAF52EA43057FF4EBAE12E74FF0FF3C58
:1009E00006E000BF4FF0010C02E000BF4FF0010C29
:1009F0004DF804CD4FEA410C7FEA6C5C4FEA430CA2
:100A000018BF7FEA6C5C1BD001B050EA410C0CBFF0
:100A100052EA430C91EA030F02BF90EA020F002052
:100A2000704710F1000F91EA030F58BF994208BFB9
:100A300090422CBFD8176FEAE37040F00100704776
:100A40004FEA410C7FEA6C5C02D150EA013C07D1CD
:100A50004FEA430C7FEA6C5CD6D152EA033CD3D018
:100A60005DF8040B704700BF8446104662468C4612
:100A70001946634600E000BF01B5FFF7B7FF002845
:100A800048BF10F1000F01BD4DF808EDFFF7F4FF6E
:100A90000CBF012000205DF808FB00BF4DF808EDF9
:100AA000FFF7EAFF34BF012000205DF808FB00BF1C
:100AB0004DF808EDFFF7E0FF94BF012000205DF83E
:100AC00008FB00BF4DF808EDFFF7CEFF94BF0120F3
:100AD00000205DF808FB00BF4DF808EDFFF7C4FFEC
:100AE00034BF012000205DF808FB00BF4FEA410C35
:100AF0007FEA6C5C02D150EA013C0AD14FEA430C18
:100B00007FEA6C5C02D152EA033C02D14FF0000054
:100B100070474FF0010070474FEA410212F5001292
:100B200015D211D56FF47873B3EB625212D94FEA34
:100B3000C12343F0004343EA505311F0004F23FA1E
:100B400002F018BF404270474FF00000704750EA73
:100B5000013005D111F0004008BF6FF00040704730
:100B60004FF00000704700BF4FEA4102B2F1E0438E
:100B700024BFB3F5001CDCF1FE5C0DD901F0004C84
:100B80004FEAC0024CEA5070B2F1004F40EB8300D4
:100B900008BF20F00100704711F0804F21D113F100
:100BA0003872BCBF01F00040704741F480114FEA39
:100BB0005252C2F11802C2F1200C10FA0CF320FAC2
:100BC00002F018BF40F001004FEAC1234FEAD323DF
:100BD00003FA0CFC40EA0C0023FA02F34FEA430349
:100BE000CCE77FEA625307D150EA01331EBF4FF0D2
:100BF000FE4040F44000704701F0004040F0FE40ED
:100C000040F40000704700BF80F0004002E000BFE9
:100C100081F0004142001FBF5FEA410392EA030FE7
:100C20007FEA226C7FEA236C6AD04FEA1262D2EB31
:100C30001363C1BFD218414048404140B8BF5B4236
:100C4000192B88BF704710F0004F40F4000020F0CF
:100C50007F4018BF404211F0004F41F4000121F0E5
:100C60007F4118BF494292EA030F3FD0A2F101022F
:100C700041FA03FC10EB0C00C3F1200301FA03F16D
:100C800000F0004302D5494260EB4000B0F5000F90
:100C900013D3B0F1807F06D340084FEA310102F14F
:100CA0000102FE2A51D2B1F1004F40EBC25008BF01
:100CB00020F0010040EA03007047490040EB0000CB
:100CC000013A28BFB0F5000FEDD2B0FA80FCACF1CC
:100CD000080CB2EB0C0200FA0CF0AABF00EBC250F9
:100CE00052421843BCBFD0401843704792F0000FE7
:100CF00081F4000106BF80F400000132013BB5E73A
:100D00004FEA41037FEA226C18BF7FEA236C21D0AF
:100D100092EA030F04D092F0000F08BF0846704714
:100D200090EA010F1CBF0020704712F07F4F04D1E2
:100D3000400028BF40F00040704712F100723CBFF5
:100D400000F50000704700F0004343F0FE4040F41F
:100D5000000070477FEA226216BF08467FEA2363DD
:100D60000146420206BF5FEA412390EA010F40F4C8
:100D7000800070474FF0000304E000BF10F0004314
:100D800048BF40425FEA000C08BF704743F09643FB
:100D900001464FF000001CE050EA010208BF704716
:100DA0004FF000030AE000BF50EA010208BF70479D
:100DB00011F0004302D5404261EB41015FEA010CB2
:100DC00002BF84460146002043F0B64308BFA3F1AA
:100DD0008053A3F50003BCFA8CF2083AA3EBC2538C
:100DE00010DB01FA02FC634400FA02FCC2F12002AB
:100DF000BCF1004F20FA02F243EB020008BF20F0E2
:100E00000100704702F1200201FA02FCC2F1200247
:100E100050EA4C0021FA02F243EB020008BF20EA3C
:100E2000DC7070474FF0FF0C1CEAD0521EBF1CEA6A
:100E3000D15392EA0C0F93EA0C0F6FD01A4480EA58
:100E4000010C400218BF5FEA41211ED04FF0006341
:100E500043EA501043EA5111A0FB01310CF000406D
:100E6000B1F5000F3EBF490041EAD3715B0040EA93
:100E7000010062F17F02FD2A1DD8B3F1004F40EB63
:100E8000C25008BF20F00100704790F0000F0CF036
:100E9000004C08BF49024CEA502040EA51207F3AFA
:100EA000C2BFD2F1FF0340EAC250704740F40000D5
:100EB0004FF00003013A5DDC12F1190FDCBF00F0C6
:100EC00000407047C2F10002410021FA02F1C2F174
:100ED000200200FA02FC5FEA310040F1000053EA10
:100EE0004C0308BF20EADC70704792F0000F00F05E
:100EF000004C02BF400010F4000F013AF9D040EA64
:100F00000C0093F0000F01F0004C02BF490011F4F7
:100F1000000F013BF9D041EA0C018FE70CEAD153F5
:100F200092EA0C0F18BF93EA0C0F0AD030F0004C75
:100F300018BF31F0004CD8D180EA010000F0004029
:100F4000704790F0000F17BF90F0004F084691F0E7
:100F5000000F91F0004F14D092EA0C0F01D1420221
:100F60000FD193EA0C0F03D14B0218BF084608D1EA
:100F700080EA010000F0004040F0FE4040F4000034
:100F8000704740F0FE4040F4400070474FF0FF0CC7
:100F90001CEAD0521EBF1CEAD15392EA0C0F93EA0E
:100FA0000C0F69D0A2EB030280EA010C49024FEA60
:100FB000402037D04FF0805343EA111143EA101319
:100FC0000CF000408B4238BF5B0042F17D024FF4D1
:100FD000000C8B4224BF5B1A40EA0C00B3EB510FAC
:100FE00024BFA3EB510340EA5C00B3EB910F24BF95
:100FF000A3EB910340EA9C00B3EBD10F24BFA3EB1A
:10100000D10340EADC001B0118BF5FEA1C1CE0D1E1
:10101000FD2A3FF650AF8B4240EBC25008BF20F094
:10102000010070470CF0004C4CEA50207F32C2BFE8
:10103000D2F1FF0340EAC250704740F400004FF085
:101040000003013A37E792F0000F00F0004C02BFB6
:10105000400010F4000F013AF9D040EA0C0093F080
:10106000000F01F0004C02BF490011F4000F013BDA
:10107000F9D041EA0C0195E70CEAD15392EA0C0F42
:1010800008D142027FF47DAF93EA0C0F7FF470AF7A
:10109000084676E793EA0C0F04D14B023FF44CAFBD
:1010A00008466EE730F0004C18BF31F0004CCAD152
:1010B00030F000427FF45CAF31F000437FF43CAF8E
:1010C0005FE700BF4FF0FF3C06E000BF4FF0010CB0
:1010D00002E000BF4FF0010C4DF804CD4FEA400292
:1010E0004FEA41037FEA226C18BF7FEA236C11D0DC
:1010F00001B052EA530C18BF90EA010F58BFB2EB8F
:10110000030088BFC81738BF6FEAE17018BF40F00E
:10111000010070477FEA226C02D15FEA402C05D1C2
:101120007FEA236CE4D15FEA412CE1D05DF8040B47
:10113000704700BF844608466146FFE70FB5FFF7DA
:10114000C9FF002848BF10F1000F0FBD4DF808ED92
:10115000FFF7F4FF0CBF012000205DF808FB00BF83
:101160004DF808EDFFF7EAFF34BF012000205DF8DD
:1011700008FB00BF4DF808EDFFF7E0FF94BF01202A
:1011800000205DF808FB00BF4DF808EDFFF7D2FF27
:1011900094BF012000205DF808FB00BF4DF808ED6A
:1011A000FFF7C8FF34BF012000205DF808FB00BF37
:1011B0004FEA40024FEA41037FEA226C02D15FEA24
:1011C000402C08D17FEA236C02D15FEA412C02D186
:1011D0004FF0000070474FF0010070474FEA4002A7
:1011E000B2F1FE4F0FD34FF09E03B3EB12620DD955
:1011F0004FEA002343F0004310F0004F23FA02F0BF
:1012000018BF404270474FF00000704712F1610F65
:1012100001D1420205D110F0004008BF6FF000403C
:1012200070474FF00000704742000ED2B2F1FE4FFF
:101230000BD34FF09E03B3EB126209D44FEA0023A5
:1012400043F0004323FA02F070474FF0000070476C
:1012500012F1610F01D1420202D14FF0FF3070470D
:101260004FF00000704700BF80B588B004AF7860D1
:101270000B46FB70FB78302B05D0302B06DC102B97
:1012800001D0202B02D1FB78FB7301E00023FB731C
:10129000282302930123019307F10F0300930123F5
:1012A0007F22D02178680BF039FB034618461037AF
:1012B000BD4680BD80B590B004AF78603960002332
:1012C000FB73002387F82E3005E000BF97F82E301F
:1012D000013387F82E3097F82E30312BF5D90021C5
:1012E0007868FFF7C1FF034687F82F3097F82F3053
:1012F000002B04D0B64B02221A7000F055BC00231C
:1013000087F82D3005E000BF97F82D30013387F8BE
:101310002D3097F82D30312BF5D928230293012356
:10132000019307F10F03009301230022D021786875
:101330000BF0EEFB034687F82F3097F82F30002B89
:1013400002D1FB7BEA2B04D0A14B03221A7000F0E0
:101350002BBC0023FB73002387F82C3005E000BF73
:1013600097F82C30013387F82C3097F82C30312B3C
:10137000F5D9282302930123019307F10F0300936A
:1013800001230622D02178680BF0C2FB034687F8C0
:101390002F30FB7B63F07F03DBB2FB7397F82F30BA
:1013A000002B1ED1002387F82B3005E000BF97F8F3
:1013B0002B30013387F82B3097F82B30312BF5D9B0
:1013C000282302930123019307F10F0300930123C4
:1013D0000622D02178680BF0A1FA034687F82F3057
:1013E00046E00023FB73002387F82A3005E000BFA6
:1013F00097F82A30013387F82A3097F82A30312BB2
:10140000F5D9282302930123019307F10F030093D9
:1014100001230622D02178680BF07AFB034687F877
:101420002F30FB7B63F07F03DBB2FB7397F82F3029
:10143000002B1DD1002387F8293005E000BF97F865
:101440002930013387F8293097F82930312BF5D925
:10145000282302930123019307F10F030093012333
:101460000622D02178680BF059FA034687F82F300E
:1014700097F82F30002B03D0554B04221A7093E3BA
:10148000642009F07BFF0023FB73282302930123D0
:10149000019307F10F03009301230622D0217868FE
:1014A0000BF036FB034687F82F30FB7B23F0070356
:1014B000DBB2FB73FB7B43F00103DBB2FB73FB7B13
:1014C00023F00803DBB2FB7397F82F30002B1DD1FC
:1014D000002387F8283005E000BF97F82830013353
:1014E00087F8283097F82830312BF5D92823029334
:1014F0000123019307F10F03009301230622D0215A
:1015000078680BF00BFA034687F82F3097F82F30E6
:10151000002B03D02E4B05221A7045E30023FB73EA
:10152000002387F8273005E000BF97F82730013304
:1015300087F8273097F82730312BF5D928230293E5
:101540000123019307F10F03009301230622D02109
:1015500078680BF0DDFA034687F82F30FB7B03F049
:101560004003002B26D0FB7B23F04003DBB2FB7350
:1015700097F82F30002B1DD1002387F8263005E087
:1015800000BF97F82630013387F8263097F82630C9
:10159000312BF5D9282302930123019307F10F037F
:1015A000009301230622D02178680BF0B7F9034697
:1015B00087F82F3097F82F30002B03D0044B0622EA
:1015C0001A70F1E20023FB73002387F8253007E04F
:1015D000D000002000BF97F82530013387F8253070
:1015E00097F82530312BF5D9282302930123019355
:1015F00007F10F03009301230322D02178680BF039
:1016000087FA034687F82F30FB7B03F01003002B8B
:1016100026D0FB7B23F01003DBB2FB7397F82F304F
:10162000002B1DD1002387F8243005E000BF97F878
:101630002430013387F8243097F82430312BF5D942
:10164000282302930123019307F10F030093012341
:101650000322D02178680BF061F9034687F82F3018
:1016600097F82F30002B03D0A54B07221A709BE26E
:10167000002387F8233005E000BF97F823300133BB
:1016800087F8233097F82330312BF5D9202178685B
:10169000FFF7EAFD034687F82F3097F82F30002B2D
:1016A00014D0002387F8223005E000BF97F82230DD
:1016B000013387F8223097F82230312BF5D92021D9
:1016C0007868FFF7D1FD034687F82F3097F82F3061
:1016D000002B03D08A4B08221A7065E20023FB73AB
:1016E000002387F8213005E000BF97F8213001334F
:1016F00087F8213097F82130312BF5D92823029330
:101700000123019307F10F03009301230022D0214D
:1017100078680BF0FDF9034687F82F30FB7BFF2B31
:1017200023D0FF23FB7397F82F30002B1DD100230C
:1017300087F8203005E000BF97F82030013387F8A4
:10174000203097F82030312BF5D92823029301233C
:10175000019307F10F03009301230022D021786841
:101760000BF0DCF8034687F82F3097F82F30002B6A
:1017700003D0634B09221A7016E20023FB7328235F
:1017800002930123019307F10F0300930123012228
:10179000D02178680BF0BCF9034687F82F3000237E
:1017A000FB7703E000BFFB7F0133FB77FB7F312B2F
:1017B000F8D9FB7B03F00103002B09D0FB7B03F07E
:1017C0000603042B04D1FB7B03F03803202B27D026
:1017D000FB7B23F03F03DBB2FB73FB7B43F0250372
:1017E000DBB2FB7397F82F30002B19D1282302931B
:1017F0000123019307F10F03009301230122D0215C
:1018000078680BF08BF8034687F82F300023BB77FE
:1018100003E000BFBB7F0133BB77BB7F312BF8D91F
:1018200097F82F30002B03D0354B0A221A70BBE1FA
:101830000023FB73282302930123019307F10F0375
:10184000009301230222D02178680BF061F903464E
:1018500087F82F3000237B7703E000BF7B7F0133C5
:101860007B777B7F312BF8D9FB7B03F00703072BBA
:1018700027D0FB7B23F00703DBB2FB73FB7B43F03A
:101880000703DBB2FB7397F82F30002B19D1282305
:1018900002930123019307F10F0300930123022216
:1018A000D02178680BF03AF8034687F82F300023F0
:1018B0003B7703E000BF3B7F01333B773B7F312B1E
:1018C000F8D997F82F30002B03D00D4B0B221A704C
:1018D0006AE10023BB8100233B823223029302236F
:1018E000019307F10C03009301231022D0217868A3
:1018F0000BF00EF9034687F82F300023FB7605E046
:10190000D000002000BFFB7E0133FB76FB7E312B35
:10191000F8D93B7B1BB21B021AB27B7B1BB2134371
:101920001BB23B823B8AC3F30B03FF2B28D03B7BCC
:1019300023F00F03DBB23B7300237B733B7B3B73D2
:10194000FF237B7397F82F30002B19D1322302939A
:101950000223019307F10C03009301231022D021ED
:1019600078680AF0DBFF034687F82F300023BB7648
:1019700003E000BFBB7E0133BB76BB7E312BF8D9C1
:101980000023FB73282302930123019307F10F0324
:10199000009301231422D02178680BF0B9F8034694
:1019A00087F82F3000237B7603E000BF7B7E013376
:1019B0007B767B7E312BF8D9FB7B03F00103002B78
:1019C00009D0FB7B03F00603042B04D1FB7B03F05F
:1019D0003803202B27D0FB7B23F03F03DBB2FB73C4
:1019E000FB7B43F02503DBB2FB7397F82F30002B12
:1019F00019D1282302930123019307F10F030093C8
:101A000001231422D02178680AF088FF034687F862
:101A10002F3000233B7603E000BF3B7E01333B7653
:101A20003B7E312BF8D997F82F30002B03D0604B39
:101A30000D221A70B8E00023FB73282302930123C0
:101A4000019307F10F03009301231522D021786839
:101A50000BF05EF8034687F82F300023FB7503E098
:101A600000BFFB7D0133FB75FB7D312BF8D9FB7B80
:101A700003F00303032B27D0FB7B23F00303DBB22C
:101A8000FB73FB7B43F00303DBB2FB7397F82F3050
:101A9000002B19D1282302930123019307F10F038F
:101AA000009301231522D02178680AF037FF0346FE
:101AB00087F82F300023BB7503E000BFBB7D0133E7
:101AC000BB75BB7D312BF8D997F82F30002B03D095
:101AD000374B0E221A7067E000217868FFF7C4FBCD
:101AE000034687F82F3000237B7503E000BF7B7D22
:101AF00001337B757B7D312BF8D997F82F30002B84
:101B000003D02B4B0F221A704EE00023FB732823C7
:101B100002930123019307F10F030093012307228E
:101B2000D02178680AF0F4FF034687F82F300023AD
:101B30003B7503E000BF3B7D01333B753B7D312BA3
:101B4000F8D9FB7B002B1FD00023FB7397F82F30B5
:101B5000002B19D1282302930123019307F10F03CE
:101B6000009301230722D02178680AF0D7FE0346AC
:101B700087F82F300023FB7403E000BFFB7C0133A8
:101B8000FB74FB7C312BF8D997F82F30002B03D056
:101B9000074B10221A7007E0054B01221A70102221
:101BA0000021044814F07EF83037BD4680BD00BFE8
:101BB000D0000020D4000020F0B58FB004AF7860D2
:101BC0007B683B62FA23FB83FB8B4FF47A7202FB48
:101BD00003F3A84AA2FB03239B09BB61012387F8F7
:101BE0002730B8690FF01AF8A34B1B78012B40F08F
:101BF0003D8107F108030C220021184614F052F829
:101C00000021386AFFF730FB034687F8273097F842
:101C10002730002B0FD1642302930C23019307F18B
:101C20000803009301232D22D021386A0AF070FFA7
:101C3000034687F8273097F82730002B40F01881AB
:101C40008E4B1B781B018E4A13447B613B7A1BB27F
:101C50001B021AB27B7A1BB213431AB27B691A8039
:101C6000BB7A1BB21B021AB2FB7A1BB213431AB225
:101C70007B695A803B7B1BB21B021AB27B7B1BB277
:101C800013431AB27B699A80BB7B1BB21B021AB248
:101C9000FB7B1BB213431AB27B69DA803B7C1BB21D
:101CA0001B021AB27B7C1BB213431AB27B691A81E6
:101CB000BB7C1BB21B021AB2FB7C1BB213431AB2D1
:101CC0007B695A817B69B3F900301A46642302FBB1
:101CD00003F3002B01DA03F6FF731B131AB27B69BF
:101CE0001A807B69B3F902301A46642302FB03F3BE
:101CF000002B01DA03F6FF731B131AB27B695A80BB
:101D00007B69B3F904301A46642302FB03F3002B0A
:101D100001DA03F6FF731B131AB27B699A807B69A1
:101D2000B3F906301A4613469B0013445B00554A2C
:101D300082FB0312D211DB17D31A1AB27B69DA8045
:101D40007B69B3F908301A4613469B0013445B00C5
:101D50004C4A82FB0312D211DB17D31A1AB27B69E9
:101D60001A817B69B3F90A301A4613469B00134463
:101D70005B00444A82FB0312D211DB17D31A1AB25A
:101D80007B695A817B69B3F900301846FEF7F6FF8C
:101D9000034683F000447B69B3F902301846FEF72E
:101DA000EDFF05467B69B3F902301846FEF7E6FF02
:101DB000034619462846FFF735F803461E467B6959
:101DC000B3F904301846FEF7D9FF05467B69B3F92D
:101DD00004301846FEF7D2FF034619462846FFF79F
:101DE00021F8034619463046FEF714FF034618460D
:101DF00014F024FE03461946204614F01DFE034647
:101E000021491846FFF70EF8034620491846FFF708
:101E1000BDF803461846FFF7E1F903461AB27B699D
:101E2000DA817B69B3F902301846FEF7A7FF044652
:101E30007B69B3F904301846FEF7A0FF0346194644
:101E4000204614F0F9FD03460F491846FEF7EAFF55
:101E500003460E491846FFF799F803461846FFF760
:101E6000BDF903461AB27B699A81BAE600BFB8E6AB
:101E700000BFB6E6D34D6210D0000020D100002094
:101E8000D40000203F06E76300003443DB0F4940E5
:101E900080B58CB000AF7860844BDB69834A43F037
:101EA0008053D361814BDB6903F080533B623B6A13
:101EB0007E4BDB697D4A43F00063D3617B4BDB697A
:101EC00003F00063FB61FB690BF0BCFE774B1B6A00
:101ED00003F00203002B1AD109F046FAF862734BA3
:101EE0001B6A724A43F0010313620AE009F03CFAEC
:101EF0000246FB6AD31AB3F5487F02D30BF0AEFE5D
:101F0000D0E06A4B1B6A03F00203002BEED0674B54
:101F10001B6ABB62BB6A03F44073B3F5807F0AD0CF
:101F2000BB6A23F44073BB62BB6A43F48073BB6239
:101F30005E4ABB6A1362BB6A03F40043002B05D1FF
:101F40005A4B1B6A594A43F400431362584B1B6BAC
:101F5000574A23F001031363554B5B6B544A23F03C
:101F6000040353637B68534A1A607B684FF0FF3267
:101F70005A607B6800229A60786808F0F3F903469B
:101F8000002B02D00BF06AFE8CE00A21786808F082
:101F9000B3FF03464AF2A552934240D007F118031B
:101FA00000210A461A800A469A7000237B610023AA
:101FB0003B7600237B760023BB7607F118030022D3
:101FC0001946786808F063FA0346002B02D00BF03C
:101FD00045FE67E001237B750123BB750023FB757C
:101FE00007F1140300221946786808F0BFFB034686
:101FF000002B02D00BF032FE54E0786900F05CF860
:102000000346BB84BB8C1A460921786808F05AFF46
:102010004AF2A5520A21786808F054FF40E007F11F
:10202000100300210A461A800A469A700023FB60BA
:1020300007F1100300221946786808F0BFFA03463A
:10204000002B2DD107F10C0300221946786808F007
:1020500043FC0346002B23D17B7B012B20D1BB7B90
:10206000012B1DD1FB7B002B1AD10023FB840921FE
:10207000786808F041FF0346FB84FB8C002B0FD0EF
:102080000023BB6007F10802FB8C1146184600F0E4
:1020900031F807F1080300221946786808F066FB5A
:1020A0000BF0DCFD3037BD4680BD00BF00100240A4
:1020B000006C00400028004080B483B000AF78601E
:1020C000FB791BB25B021AB27B791BB25B011BB2BC
:1020D00003F4F0731BB213431AB2BB791BB203F0C3
:1020E0001F031BB213431BB29BB218460C37BD46ED
:1020F00080BC704780B483B000AF03463960FB807A
:10210000FB885B0A9BB2DBB203F07F03DAB23B6869
:10211000DA70FB885B099BB2DBB203F00F03DAB223
:102120003B685A70FB88DBB203F01F03DAB23B68EE
:102130009A7000BF0C37BD4680BC704780B586B032
:1021400000AF0023FB75434B434A1A6000233B61F9
:1021500030E0404B1B68BB60BB681B884FF6FF72CA
:1021600093421FD1BB6802331B884FF6FF72934224
:1021700018D1BB6804331B884FF6FF72934211D10C
:10218000BB6806331B884FF6FF7293420AD1314B6E
:102190001B68314A934211D10123FB752D4B2F4A05
:1021A0001A600BE02B4B1B6880332A4A13603B6993
:1021B00001333B613B690F2BCBD900E000BF274BBC
:1021C0007B60244B1B687A689A423FD10023FB60F6
:1021D00037E0204B1B683B603B681B884FF6FF7263
:1021E000934226D13B6802331B884FF6FF7293421D
:1021F0001FD13B6804331B884FF6FF72934218D1FE
:102200003B6806331B884FF6FF72934211D1114B86
:102210001B687A689A4218D1FB7D002B15D00D4BB4
:102220000D4A1A6010210E4809F0B1FE00F06EF957
:102230000BE0084B1B688033064A1360FB680133D0
:10224000FB60FB680F2BC4D900E000BF00BF18374C
:10225000BD4680BD0000002000E8070800F0070828
:1022600000080140F0B400AF2B4A2C4B104603F19C
:10227000200402461946D1F800C04E688D68C9682E
:10228000C2F800C056609560D16010331030A34290
:10229000EFD102461B681360204B00221A801F4BAF
:1022A00046225A801D4B4FF6FB729A801B4B5522DB
:1022B000DA801A4B0A221A81184B02225A81174BD4
:1022C00043F698229A81154B42F60412DA81134B99
:1022D00032221A82114B44F620625A820F4B052299
:1022E0009A820E4B0522DA820C4B00221A830B4B8A
:1022F00001225A83094B42F228329A83074B01226A
:10230000DA83064B00221A84044B01225A8400BF50
:10231000BD46F0BC704700BF28000020040000202C
:1023200080B48BB000AF00237B62744B1B68744A8F
:10233000934202D1734B7B6203E0704B1B68803B7E
:102340007B627B6A1B887B84B7F92230B3F1FF3F45
:1023500002D06D4A7B8C13807B6A02331B883B84DE
:10236000B7F92030B3F1FF3F02D0674A3B8C53806E
:102370007B6A04331B88FB83B7F91E30B3F1FF3F40
:1023800002D0614AFB8B93807B6A06331B88BB8338
:10239000B7F91C30B3F1FF3F02D05B4ABB8BD3804F
:1023A0007B6A08331B887B83B7F91A30B3F1FF3F90
:1023B00002D0554A7B8B13817B6A0A331B883B838F
:1023C000B7F91830B3F1FF3F02D04F4A3B8B53812E
:1023D0007B6A0C331B88FB82B7F91630B3F1FF3FE1
:1023E00002D0494AFB8A93817B6A0E331B88BB82E9
:1023F000B7F91430B3F1FF3F02D0434ABB8AD3810F
:102400007B6A10331B887B827B8A4FF6FF72934274
:1024100002D03D4A7B8A13827B6A12331B883B823F
:102420003B8A4FF6FF72934202D0374A3B8A53826F
:102430007B6A14331B88FB81B7F90E30B3F1FF3F81
:1024400002D0314AFB8993827B6A16331B88BB8199
:10245000B7F90C30B3F1FF3F02D02B4ABB89D382CE
:102460007B6A18331B887B817B894FF6FF7293420E
:1024700002D0254A7B8913837B6A1A331B883B81F0
:102480003B894FF6FF72934202D01F4A3B89538328
:102490007B6A1C331B88FB80B7F90630B3F1FF3F22
:1024A00002D0194AFB8893837B6A1E331B88BB804A
:1024B000BB884FF6FF72934202D0134ABB88D38386
:1024C0007B6A20331B887B807B884FF6FF729342A8
:1024D00002D00D4A7B8813847B6A22331B883B80A1
:1024E0003B884FF6FF72934202D0074A3B885384E1
:1024F00000BF2C37BD4680BC704700BF00000020E5
:1025000000E8070880F70708040000202DE9B04F15
:10251000A6B000AF002387F897300023C7F88C30AF
:102520000023FB67AD4BC7F884300123C7F8883020
:1025300011F01CFE72B600BF09F0D6F9034687F809
:10254000973097F89730002B40F03A8107F18C02D2
:1025500007F17C031146184609F0AEFA034687F8E6
:102560009730D7F88C30B3F1FF3F02D0012387F8C2
:10257000973097F89730002B40F02281974BC7F89F
:102580009030D7F890301946954B1B881BB21BB280
:10259000DA171C46154622462B46012009F034F96D
:1025A000D7F89030023319468D4B5B881BB21BB2B3
:1025B000DA179846914642464B46012009F024F925
:1025C000D7F8903004331946854B9B881BB21BB259
:1025D000DA179A46934652465B46012009F014F9F1
:1025E000D7F89030063319467D4BDB881BB21BB2FF
:1025F000DA173B677A67D7E91C23012009F004F951
:10260000D7F8903008331946754B1B891BB21BB2A3
:10261000DA17BB66FA66D7E91A23012009F0F4F845
:10262000D7F890300A3319466D4B5B891BB21BB249
:10263000DA173B667A66D7E91823012009F0E4F837
:10264000D7F890300C331946654B9B891BB21BB2EF
:10265000DA17BB65FA65D7E91623012009F0D4F82B
:10266000D7F890300E3319465D4BDB891BB21BB295
:10267000DA173B657A65D7E91423012009F0C4F81D
:10268000D7F8903010331946554B1B8A9BB29BB23A
:102690000022BB64FA64D7E91223012009F0B4F8E0
:1026A000D7F89030123319464D4B5B8A9BB29BB2E0
:1026B00000223B647A64D7E91023012009F0A4F8D2
:1026C000D7F8903014331946454B9B8A1BB21BB286
:1026D000DA17BB63FA63D7E90E23012009F094F8F7
:1026E000D7F89030163319463D4BDB8A1BB21BB22C
:1026F000DA173B637A63D7E90C23012009F084F8E9
:10270000D7F8903018331946354B1B8B9BB29BB2D0
:102710000022BB62FA62D7E90A23012009F074F8AB
:10272000D7F890301A3319462D4B5B8B9BB29BB276
:1027300000223B627A62D7E90823012009F064F89D
:10274000D7F890301C331946254B9B8B1BB21BB21C
:10275000DA17BB61FA61D7E90623012009F054F8C2
:10276000D7F890301E3319461D4BDB8B9BB29BB2C2
:1027700000223B617A61D7E90423012009F044F883
:10278000D7F8903020331946154B1B8C9BB29BB267
:102790000022BB60FA60D7E90223012009F034F877
:1027A000D7F89030223319460D4B5B8C9BB29BB20D
:1027B00000223B607A60D7E90023012009F024F869
:1027C00009F0B8F862B600BF11F000FD97F8973035
:1027D00018469837BD46BDE8B08F00BF00E807082F
:1027E000040000202DE9B04390B000AF78600023D2
:1027F00087F83F300023FB610023FB600123BB61AE
:1028000011F0B4FC72B600BF09F06EF8034687F809
:102810003F3097F83F30002B06D062B600BF11F072
:10282000D5FC97F83F3017E17B687B628D4B1B68C6
:102830008D4A934205D28B4B1B6812338A4A9342CE
:1028400002D3884B894A1A600023BB631CE0BB6B30
:102850005A00844B1B68D118BB6B5B007A6A134427
:102860001B889BB200229846914642464B46012067
:1028700008F0CAFF034687F83F3097F83F30002B37
:1028800006D1BB6B0133BB63BB6B112BDFD900E0FF
:1028900000BF97F83F30002B5BD0724B1B6823F4CE
:1028A000FF6323F007033B623B6A7B616D4A3B6A2F
:1028B000136007F11C0207F10C031146184609F0DA
:1028C000FBF8034687F83F30FB69B3F1FF3F17D0B1
:1028D000002387F837300FE007F11C0207F10C03E3
:1028E0001146184609F0E8F8034687F83F3097F894
:1028F0003730013387F8373097F83730022BEBD970
:1029000097F83F30002B24D100233B631CE03B6B46
:102910005A00544B1B68D1183B6B5B007A6A134416
:102920001B889BB200221C46154622462B460120DE
:1029300008F06AFF034687F83F3097F83F30002BD6
:1029400006D13B6B01333B633B6B112BDFD900E0BE
:1029500000BF97F83F30002B76D1424B1B68424AAC
:10296000934202D33F4B414A1A600023FB623D4B26
:102970001B683E4A934204D13D4B7B613C4BFB625A
:1029800008E0384B1B683A4A934203D1374B7B61CE
:10299000364BFB62FB6A002B51D0FB6A1B884FF65B
:1029A000FF7293424BD0FB6A02331B884FF6FF72D3
:1029B000934244D0FB6A04331B884FF6FF72934264
:1029C0003DD0FB6A06331B884FF6FF72934236D028
:1029D00007F11C0207F10C031146184609F06CF8C8
:1029E000034687F83F30FB69B3F1FF3F17D0002360
:1029F00087F82B300FE007F11C0207F10C0311469A
:102A0000184609F059F8034687F83F3097F82B30FD
:102A1000013387F82B3097F82B30022BEBD997F83E
:102A20003F30002B03D1FB69B3F1FF3F07D008F023
:102A300081FF62B600BF11F0C9FB01230CE0094B16
:102A40001B688033074A136008F074FF62B600BF4A
:102A500011F0BCFB97F83F3018464037BD46BDE843
:102A6000B08300BF0000002000F8070800E8070856
:102A700000F0070880B500AFFFF7F4FB0248FFF74E
:102A8000B1FE0346184680BD040000202DE9F04F3A
:102A900091B002AF6B461E46402387F82F308F4B14
:102AA0001B7887F82E30FF2387F83730FF2387F80D
:102AB0003630FF2387F835304FF0FF33FB614FF09E
:102AC000FF33BB614FF0FF337B6197F82E30002B53
:102AD0000CD1834B1B7887F83730824B1B7887F8F3
:102AE0003630814B1B7887F8353012E097F82E305E
:102AF000012B0CD17D4B1B7887F837307C4B1B7832
:102B000087F836307B4B1B7887F8353001E002239D
:102B1000DEE007F1180107F11C0207F1140300932E
:102B20000B467549754813F08FF80346032B01D007
:102B30000323CDE0FB69DBB297F837209A420DD131
:102B4000BB69DBB297F836209A4207D17B69DBB2CA
:102B500097F835209A4201D10123B9E097F82F3038
:102B6000013BBB6297F82F300022984691464FF008
:102B700000024FF000034FEAC90343EA58734FEADB
:102B8000C80297F82F3000221C4615464FF000026D
:102B90004FF00003EB0043EA5473E20097F82F3044
:102BA0000733DB08DB00ADEB030D02AB00337B62C8
:102BB00097F82F301A464949786A13F005F997F8C3
:102BC0002E30002B0CD1FB69DAB27B6ADA71BB695B
:102BD000DAB27B6A1A727B69DAB27B6A5A720FE0E8
:102BE00097F82E30012B0BD1FB69DAB27B6A5A734E
:102BF000BB69DAB27B6A9A737B69DAB27B6ADA7391
:102C0000012387F8343072B600BF08F06DFE03462A
:102C1000002B52D13B1D00221A605A609A60DA6084
:102C20002E4BFB6001233B613A463B1D1146184683
:102C300008F042FF034687F8343097F83430002B11
:102C40003BD1012387F8343000233B632EE03B6BFC
:102C500003337A6AD35C1A063B6B0233796ACB5C26
:102C60001B041A433B6B0133796ACB5C1B02134391
:102C7000796A3A6B0A44127813433B623B6B03F167
:102C8000006101F5FF213B6A00229A4693465246B5
:102C90005B46022008F0B8FD034687F8343097F809
:102CA0003430002B08D13B6B04333B6397F82F3053
:102CB0003A6B9A42CBD300E000BF08F03BFE62B60D
:102CC00000BF97F83430012B01D1052300E0042325
:102CD000B54618463C37BD46BDE8F08F00F80708FA
:102CE00007F8070808F8070809F807080DF80708A3
:102CF0000EF807080FF80708387C0508487C050817
:102D000080B584B000AF786039604FF0500383F332
:102D10001188BFF36F8FBFF34F8FFB6000BF20217F
:102D2000104809F005F90346012B04D001222021A7
:102D30000C4809F014F901224FF480510A4809F0B7
:102D40000EF901224FF40051074809F008F94FF439
:102D5000FA6008F013FB06F061F800BF1037BD46BB
:102D600080BD00BF00080140000C014080B582B06A
:102D700000AF4FF0500383F31188BFF36F8FBFF3A1
:102D80004F8F7B6000BF2021104809F0D1F8034627
:102D9000012B04D0012220210C4809F0E0F8012287
:102DA0004FF480510A4809F0DAF801224FF400513B
:102DB000074809F0D4F84FF4FA6008F0DFFA06F09B
:102DC0002DF800BF0837BD4680BD00BF0008014098
:102DD000000C014080B58AB000AF78600A23FB8404
:102DE00000233B625F4B1B685B6BFB615D4B1B68A9
:102DF0009B6BBB615C4B186807F108014FF0FF3318
:102E000000220EF08DF90346002BF3D1BB68002B96
:102E100001D1FB6900E0BB693B623B7C002B32D1F6
:102E2000524B9A68FB681340002B2CD0BB681946A4
:102E30004C480BF0F1FDBB68002B04D1494B1B68DB
:102E40003A6A5A6313E0BB68042B04D1454B1A68F5
:102E50003B6A93630BE0BB68082B04D1414B1A68B3
:102E60003B6AD36303E03F4B1A683B6A136411F07B
:102E70007DF93E4B9A68FB68DB4313403B4A936005
:102E800011F0A4F96DE03B7CFF2BB3D1374B9A686E
:102E9000FB681340002BADD17B7C1A46FB8C02FBF8
:102EA00003F31A463B6A13447B612E4BDB687A6955
:102EB0009A429FD87B7C002B24D1BB68002B06D183
:102EC000284BDA68274B1B6801325A6336E0BB682F
:102ED000042B06D1234BDB68224A1268013393632B
:102EE0002CE0BB68082B06D11E4BDB681D4A12681C
:102EF0000133D36322E01B4BDB681A4A12680133AB
:102F000013641BE0BB68002B04D1164B1B687A6965
:102F10005A6313E0BB68042B04D1124B1A687B6917
:102F200093630BE0BB68082B04D10E4B1A687B69D6
:102F3000D36303E00B4B1A687B691364BB681946C3
:102F400008480BF0AFFC0346002B7FF453AF11F0A1
:102F50000DF9064B9A68FB681343044A936011F01D
:102F600035F947E7A80100200001002020080020D3
:102F700080B586B000AF78600B46FB707B681B881D
:102F8000FB82FB8A072B02D8FB8ADBB200E003231B
:102F90007B75FB78FF2B40F0EB807B7D072B00F2ED
:102FA000488101A252F823F0C92F04080F30040809
:102FB000553004089B300408E1300408053104084A
:102FC000293104084D3104080023BB600423FB6051
:102FD000FF233B7400237B74984B186807F10801AA
:102FE0004FF0FF3300220EF027F80423BB600823C4
:102FF000FB60FF233B7400237B74904B186807F140
:1030000008014FF0FF3300220EF016F811E1002303
:10301000BB600423FB60FF233B7412237B74874B4C
:10302000186807F108014FF0FF3300220EF004F892
:103030000423BB600823FB60FF233B7400237B74E5
:103040007E4B186807F108014FF0FF3300220DF0A6
:10305000F3FFEEE00023BB600423FB60FF233B741F
:1030600000237B74754B186807F108014FF0FF339C
:1030700000220DF0E1FF0423BB600823FB60FF2367
:103080003B7412237B746D4B186807F108014FF0F5
:10309000FF3300220DF0D0FFCBE00023BB60042300
:1030A000FB60FF233B7412237B74644B186807F1A9
:1030B00008014FF0FF3300220DF0BEFF0423BB6078
:1030C0000823FB60FF233B7412237B745B4B18685F
:1030D00007F108014FF0FF3300220DF0ADFFA8E02B
:1030E0000023BB600423FB60FF233B7400237B743D
:1030F000524B186807F108014FF0FF3300220DF022
:103100009BFF96E00423BB600823FB60FF233B7416
:1031100000237B74494B186807F108014FF0FF3317
:1031200000220DF089FF84E00023BB600423FB60D4
:10313000FF233B7412237B74404B186807F108018E
:103140004FF0FF3300220DF077FF72E00423BB60E5
:103150000823FB60FF233B7412237B74374B1868F2
:1031600007F108014FF0FF3300220DF065FF60E02A
:10317000FB78002B5DD17B7D072B5AD801A252F83A
:1031800023F000BFA5310408A5310408A5310408C7
:10319000A5310408EB3104080F320408EB310408B0
:1031A0000F3204080023BB600423FB6000233B7440
:1031B00000237B74214B186807F108014FF0FF339F
:1031C00000220DF039FF0423BB600823FB600023BD
:1031D0003B7400237B74194B186807F108014FF00A
:1031E000FF3300220DF028FF23E00023BB600423FF
:1031F000FB6000233B7400237B74104B186807F1BD
:1032000008014FF0FF3300220DF016FF11E00423F8
:10321000BB600823FB6000233B7400237B74074BD7
:10322000186807F108014FF0FF3300220DF004FF8A
:1032300000BF00BF1837BD4680BD00BF00010020A1
:1032400080B592B000AF07F1280300221A605A60DF
:103250009A60DA601A615A61224BBB6207F1280357
:103260001A460C2104200DF061FE03461E4A13602D
:103270001D4B1B68002B0BD14FF0500383F31188BB
:10328000BFF36F8FBFF34F8F7B6400BF00BFFDE7BD
:103290003B1D24220021184612F004FD134B7B60D5
:1032A0004FF40073BB611823FB613B1D1A460021DC
:1032B0000F480DF009FC03460E4A13600D4B1B68C6
:1032C000002B0BD14FF0500383F31188BFF36F8FA6
:1032D000BFF34F8F3B6400BF00BFFDE700BF48371F
:1032E000BD4680BD6C7C050804010020787C050883
:1032F000B93304080801002080B586B000AF7860BB
:103300000B46FB700023FB6000233B82FB78BB7401
:103310000323FB7400233B7500237B757B68B3F5A7
:10332000802F04D07B68B3F5002F06D03DE0204B02
:10333000FB604FF480533B8205E01D4BFB604FF474
:1033400000533B8200BFBB7C052B2BD801A252F857
:1033500023F000BF853304086D3304087333040879
:1033600085330408793304087F33040801237B750F
:1033700009E000237B7506E004233B7503E0082386
:103380003B7500E000BFFB68002B0DD03B8A002B93
:103390000AD0084B186807F10C01002300220DF039
:1033A0004BFE02E000BF00E000BF1837BD4680BD05
:1033B000000C014004010020B0B58EB000AF786071
:1033C000FA233B63C84B07F10C041D460FCD0FC415
:1033D00095E8030084E80300002387F837301CE0F9
:1033E00097F8372013465B0013449B0038333B4467
:1033F0002C3B186897F8372013465B0013449B005A
:1034000038333B44283B1B880022194608F0A7FDAF
:1034100097F83730013387F8373097F83730012B7A
:10342000DED921E1002387F8363018E197F83620FD
:1034300013465B0013449B0038333B442C3B1B6812
:10344000002B00F0008197F8362013465B001344F0
:103450009B0038333B44283B1B88002B00F0F38053
:1034600097F8362013465B0013449B0038333B44E7
:103470002C3B1A687B6A9A4240F0EC8097F8362021
:1034800013465B0013449B0038333B44283B1A88A7
:103490003B8D9A4240F0DE8097F8361097F8362040
:1034A0000B465B000B449B0038333B44263B1978AA
:1034B00013465B0013449B0038333B44253B0A46CC
:1034C0001A7097F8362097F82A1013465B001344B9
:1034D0009B0038333B44263B0A461A7097F8362047
:1034E00097F82C1013465B0013449B0038333B4481
:1034F000243B0A461A7097F8362097F82D10134689
:103500005B0013449B0038333B44233B0A461A704C
:1035100097F8362013465B0013449B0038333B4436
:10352000263B1B78052B00F2908001A252F823F075
:103530007B3504084935040849350408E135040899
:10354000493504084935040897F8362013465B00CE
:1035500013449B0038333B442C3B186897F83620C3
:1035600013465B0013449B0038333B44283B1B88C5
:103570000022194608F0F3FC6CE097F83620134659
:103580005B0013449B0038333B442C3B186897F88E
:10359000362013465B0013449B0038333B44283BE2
:1035A0001B88194608F0C4FC0346012B4FD097F83E
:1035B000362013465B0013449B0038333B442C3BBE
:1035C000186897F8362013465B0013449B00383385
:1035D0003B44283B1B880122194608F0C0FC36E01A
:1035E00097F8362013465B0013449B0038333B4466
:1035F0002C3B186897F8362013465B0013449B0059
:1036000038333B44283B1B88194608F091FC03469D
:10361000002B1ED097F8362013465B0013449B0006
:1036200038333B442C3B186897F8362013465B0030
:1036300013449B0038333B44283B1B880022194627
:1036400008F08DFC05E000BF04E000BF02E000BF11
:1036500000E000BF97F83630013387F8363097F82E
:103660003630012B7FF6E2AE204B186807F12401BB
:10367000002300220DF054FD0346002B3FF4D2AE90
:10368000002387F8353061E197F8352013465B0059
:1036900013449B0038333B442C3B1B68002B00F049
:1036A0004B8197F8352013465B0013449B00383359
:1036B0003B44283B1B88002B00F03E8197F83520C7
:1036C00013465B0013449B0038333B44263B1B7876
:1036D000052B00F33381042B0ADA012B00F0D9808B
:1036E000022B00F0118129E1807C050804010020F3
:1036F00097F8352013465B0013449B0038333B4456
:10370000243B1B78002B40F0978097F83520134618
:103710005B0013449B0038333B44253B1B78002B54
:103720003ED197F8352013465B0013449B00383395
:103730003B44263B00221A7097F8352013465B0065
:1037400013449B0038333B442C3B186897F83520D2
:1037500013465B0013449B0038333B44283B1B88D3
:10376000194608F0E5FB0346012B00F0E98097F8C5
:10377000352013465B0013449B0038333B442C3BFD
:10378000186897F8352013465B0013449B003833C4
:103790003B44283B1B880122194608F0E0FBCFE0A0
:1037A00097F8352013465B0013449B0038333B44A5
:1037B000253B1B78032B40F0C38097F83520134638
:1037C0005B0013449B0038333B44263B03221A70B2
:1037D00097F8352013465B0013449B0038333B4475
:1037E0002C3B186897F8352013465B0013449B0068
:1037F00038333B44283B1B88194608F099FB0346A5
:10380000002B00F09D8097F8352013465B00134491
:103810009B0038333B442C3B186897F835201346FF
:103820005B0013449B0038333B44283B1B88002239
:10383000194608F094FB83E097F8352013465B00A7
:1038400013449B0038333B442C3B186897F83520D1
:1038500013465B0013449B0038333B44283B1B88D2
:10386000194608F094FB97F8352013465B00134483
:103870009B0038333B44243B1B78013BD9B21346B1
:103880005B0013449B0038333B44243B0A461A70C8
:1038900057E097F8352013465B0013449B003833FC
:1038A0003B44233B1B78002B22D097F8352013464E
:1038B0005B0013449B0038333B442C3B186897F85B
:1038C000352013465B0013449B0038333B44283BB0
:1038D0001B88194608F05BFB97F8352013465B0000
:1038E00013449B0038333B44233B00221A7028E0EA
:1038F00097F8352013465B0013449B0038333B4454
:10390000233B01221A701CE097F8352013465B0018
:1039100013449B0038333B442C3B186897F8352000
:1039200013465B0013449B0038333B44283B1B8801
:10393000194608F02CFB04E000BF02E000BF00E0E5
:1039400000BF97F83530013387F8353097F83530B8
:10395000012B7FF699AE386B0DF060F984E600BF5D
:1039600080B483B000AF0346FB7197F90730002B9A
:103970000CDBFB7903F01F02074997F907305B095D
:10398000012000FA02F2603341F8232000BF0C3717
:10399000BD4680BC704700BF00E100E080B400AFCE
:1039A000BFF34F8F00BF064BDB6803F4E0620449AE
:1039B000044B1343CB60BFF34F8F00BF00BFFDE745
:1039C00000ED00E00400FA0580B584B000AFA64B1E
:1039D00000229A6007F0A0FC00F042FA00F044FDDB
:1039E00000F0E6FC00F096FB00F07EFA00F012FD1D
:1039F00000F02CFB00F0A6FA00F012FC00F046FCF0
:103A000010219A4808F0C3FA642007F0B7FC01229D
:103A10002021974808F0A3FA1021944808F0B7FA3B
:103A200000224FF40041924808F099FA0A2007F06A
:103A3000A5FC01224FF400418D4808F090FA8A4B12
:103A40009B6843F01003884A93601021874808F070
:103A50009EFA03F071FA874B1B6819468648FDF7FA
:103A600029FC1021814808F092FA03F065FA824897
:103A700005F008FE10217D4808F089FA03F05CFA91
:103A80007D4805F03DFD03461A46774B5A831021C9
:103A9000764808F07CFA03F04FFA88227749764896
:103AA00005F01EFF034676491846FDF7BBF90346AD
:103AB0001846FDF793FB03461AB26B4B1A80102190
:103AC0006A4808F064FA03F037FA89226B496A48B9
:103AD00005F006FF03466A491846FDF7A3F90346B9
:103AE0001846FDF7A1FB03469AB25F4B5A8010219E
:103AF0005E4808F04CFA03F01FFA002200215E48ED
:103B000005F08EFC03461A46574BDA8010215748C1
:103B100008F03DFA03F010FA574805F017FD386039
:103B20003B6804331B68184613F018F80346184620
:103B3000FDF77AFB03469AB24B4B5A8310214B4850
:103B400008F025FA03F0F8F94E4B03221A704D4B9A
:103B50004D4A5A604B4B30221A724A4B40F6B832EB
:103B6000A3F82221474B0022DA60464B474AC3F8AC
:103B70001821444B0422A3F82421424B012283F84C
:103B80004422404810F0A6FE3E4810F04DFF404B46
:103B900003221A703E4B3F4A5A603D4B30221A7244
:103BA0003B4B40F6B832A3F82221394B304ADA6059
:103BB000374B4FF480621A82354B374AC3F81821CD
:103BC000334B0422A3F82421314B012283F84422F1
:103BD0002F4810F07FFE2E4810F026FF10212348BA
:103BE00008F0D5F9FFF72CFB1021204808F0CFF999
:103BF0000023FB600023BB6013E020211B4808F07A
:103C000097F90346002B02D0BB680133BB60BB6849
:103C1000052B03DD144B01221A7605E0FB68013306
:103C2000FB60FB68092BE8DD1021104808F0AFF9B4
:103C3000FEF784FA10210D4808F0A9F9FEF770FB91
:103C400010210A4808F0A3F9FEF720FF03461A46A0
:103C5000124B1A701021054808F099F91048FEF728
:103C600017F90023FB8021E0200800200008014014
:103C7000000C0140080800200C010020D40800209E
:103C800000007A445C030020C8020020A405002044
:103C9000A805002010030020F0070020F8000020F5
:103CA000E400002000BFFB880133FB80FB88632B0E
:103CB000F8D9424B4FF461725A821021404808F003
:103CC00066F905F0B1F83F480AF03CFD03F07AFAD6
:103CD0000CF094FE3C4A002101200CF0CDFF03467D
:103CE0003A4A13603A4A012101200CF0C5FF03460D
:103CF000384A1360384A002101200CF0BDFF03460A
:103D0000364A1360364A0C2101200DF00FF90346A4
:103D1000344A1360344A062108200DF007F903469F
:103D2000324A1360324A002132480CF0CDFE03467D
:103D3000314A1360314A002131480CF0C5FE034678
:103D4000304A1360304A002130480CF0BDFE034673
:103D50002F4A13602F4A00212F480CF0B5FE03466E
:103D60002E4A13602E4A00212E480CF0ADFE034669
:103D70002D4A13602D4A00212D480CF0A5FE034664
:103D80002C4A13602C4A00212C480CF09DFE03465F
:103D90002B4A13602B4A2C492C480CF095FE034605
:103DA0002B4A13602B4A00212B480CF08DFE034652
:103DB0002A4A13600CF054FE00BFFDE720080020E3
:103DC0000008014038020020B07E050800080020ED
:103DD000E47E050808080020547F0508C408002078
:103DE000087E0508000100203C7F0508C00800206F
:103DF000207E0508A18B040858030020447E050896
:103E0000A1710408F4070020687E0508658A04088B
:103E1000F8070020E47D0508D52D0408FC000020EB
:103E20008C7E0508C18A0408FC070020C07E0508B6
:103E3000696C040804080020F47E05083571040844
:103E40000C080020C07D05080C010020B91B0408E7
:103E5000CC000020187F05085D8F0408BC080020F6
:103E600080B590B000AF07F1180328220021184652
:103E700011F018FF3B1D00221A605A609A60DA6048
:103E80001A610123BB614FF48033FB6100233B6265
:103E90000123BB6202237B634FF48033BB634FF487
:103EA0008023FB6307F11803184609F0E3FE03467D
:103EB000002B01D004F0B2FF0F237B600223BB6014
:103EC0000023FB6000233B6100237B613B1D00213D
:103ED00018460AF051F90346002B01D004F09EFF6A
:103EE00000BF4037BD4680BD80B500AF124B134ABE
:103EF0001A60114B124A5A600F4B00229A600E4B07
:103F00000022DA600C4B4FF480421A610A4B002207
:103F10005A61094B00229A61074B0022DA61064B75
:103F200000221A62044808F04BF80346002B01D027
:103F300004F074FF00BF80BD0C010020005400405D
:103F4000A086010080B58EB000AF07F130030022DB
:103F50001A605A6007F1200300221A605A609A60C2
:103F6000DA603B1D00221A605A609A60DA601A61BA
:103F70005A619A61344B4FF080421A60324B1722DB
:103F80005A60314B00229A602F4B40F6B732DA600C
:103F90002D4B00221A612C4B80229A612A480AF08C
:103FA000ABFD0346002B01D004F038FF26480AF091
:103FB00029FC0346002B01D004F030FF08212248E1
:103FC0000AF004FF0346002B01D004F027FF202352
:103FD0003B6300237B6307F1300319461A480BF05B
:103FE0003DFD0346002B01D004F018FF00233B6287
:103FF00001237B620023BB620423FB6207F12003E1
:104000000422194610480BF042F80346002B01D059
:1040100004F004FF60237B600023BB600023FB608F
:1040200004237B613B1D0C22194607480BF0CCF89A
:104030000346002B01D004F0F1FE034806F00EF811
:1040400000BF3837BD4680BD6001002080B58AB012
:1040500000AF07F1200300221A605A603B1D0022C6
:104060001A605A609A60DA601A615A619A61274B45
:10407000274A1A60254B17225A60244B00229A6067
:10408000224B40F2E732DA60204B00221A611F4BCC
:1040900080229A611D480AF0B5FB0346002B01D02F
:1040A00004F0BCFE00233B6200237B6207F1200387
:1040B000194616480BF0D2FC0346002B01D004F041
:1040C000ADFE60237B606423BB600023FB600023A4
:1040D0007B613B1D002219460C480BF075F8034626
:1040E000002B01D004F09AFE3B1D0422194607481C
:1040F0000BF06AF80346002B01D004F08FFE034852
:1041000005F0ACFF00BF2837BD4680BDA8010020E8
:104110000008004080B58EB000AF07F130030022E8
:104120001A605A6007F1200300221A605A609A60F0
:10413000DA603B1D00221A605A609A60DA601A61E8
:104140005A619A61344B354A1A60334B17225A60D0
:10415000314B00229A60304B40F6B732DA602E4B7A
:1041600000221A612C4B80229A612B480AF0C4FC71
:104170000346002B01D004F051FE27480AF042FB11
:104180000346002B01D004F049FE082122480AF022
:104190001DFE0346002B01D004F040FE20233B63AC
:1041A00000237B6307F1300319461B480BF056FCD4
:1041B0000346002B01D004F031FE00233B620123B3
:1041C0007B620023BB620423FB6207F12003002211
:1041D000194611480AF05BFF0346002B01D004F09A
:1041E0001DFE60237B600023BB600023FB60042373
:1041F0007B613B1D0422194607480AF0E5FF034690
:10420000002B01D004F00AFE034805F027FF00BF91
:104210003837BD4680BD00BFF0010020000C0040D3
:1042200080B582B000AF3B4600221A605A60154B41
:10423000154A1A60134B17225A60124B00229A60DB
:10424000104B4FF6FF72DA600E4B80229A610D48D8
:104250000AF028FA0346002B01D004F0DFFD2023EA
:104260003B6000237B603B46194606480BF0F6FB9B
:104270000346002B01D004F0D1FD00BF0837BD4636
:1042800080BD00BF380200200014004080B592B00D
:1042900000AF07F1400300221A605A6007F12403BF
:1042A00000221A605A609A60DA601A615A619A6153
:1042B0003B1D20220021184611F0F4FC3A4B3B4AEA
:1042C0001A60394B17225A60374B00229A60364BDE
:1042D00040F2E732DA60344B00221A61324B00229E
:1042E0005A61314B80229A612F480AF08BFA0346BB
:1042F000002B01D004F092FD20233B6400237B645B
:1043000007F14003194628480BF0A8FB0346002B91
:1043100001D004F083FD60237B620023BB62002395
:10432000FB6208233B6300237B630023BB63002302
:10433000FB6307F12403002219461B480AF044FFDF
:104340000346002B01D004F069FD07F12403042289
:10435000194615480AF038FF0346002B01D004F037
:104360005DFD4FF400637B604FF48063BB6000230E
:10437000FB6000233B6100237B614FF40053BB6172
:1043800000233B623B1D194607480BF0D3FB034655
:10439000002B01D004F042FD034805F05FFE00BF92
:1043A0004837BD4680BD00BF800200200034014078
:1043B00080B500AF154B164A1A60144B4FF4964265
:1043C0005A60124B00229A60104B0022DA600F4BA9
:1043D00000221A610D4B0C225A610C4B00229A618B
:1043E0000A4B0022DA6109480BF007FC0346002B58
:1043F00001D004F013FD054B1B685A69034B1B6881
:1044000042F001025A6100BF80BD00BFC802002017
:104410000038014080B500AF114B124A1A60104BB2
:104420004FF496425A600E4B00229A600C4B0022C9
:10443000DA600B4B00221A61094B0C225A61084BBF
:1044400000229A61064B0022DA6105480BF0D5FB89
:104450000346002B01D004F0E1FC00BF80BD00BF8B
:10446000100300200048004080B588B000AF07F17D
:10447000100300221A605A609A60DA60774B9B69D9
:10448000764A43F010039361744B9B6903F0100369
:10449000FB60FB68714B9B69704A43F0200393619A
:1044A0006E4B9B6903F02003BB60BB686B4B9B6941
:1044B0006A4A43F004039361684B9B6903F0040369
:1044C0007B607B68654B9B69644A43F0080393619A
:1044D000624B9B6903F008033B603B68002242F299
:1044E0000F215F4807F03BFD002241F210115D48AB
:1044F00007F035FD012220215A4807F030FD002247
:1045000043F22241584807F02AFD01224CF21001E3
:10451000554807F024FD01224FF48051504807F020
:104520001EFD01220421514807F019FD4FF40853E4
:104530003B6101237B610023BB610223FB6107F127
:1045400010031946464807F05FFB41F20F033B6139
:1045500011237B610023BB610223FB6107F1100380
:1045600019463F4807F050FB48F644033B610023DF
:104570007B610023BB6107F110031946394807F03E
:1045800043FB41F210133B6101237B610023BB61BC
:104590000223FB6107F110031946324807F034FB90
:1045A00020233B6111237B610023BB610223FB615C
:1045B00007F1100319462B4807F026FB4FF49873B8
:1045C0003B6100237B610023BB6107F110031946A7
:1045D000234807F019FB43F202433B6101237B614F
:1045E0000023BB610223FB6107F1100319461E483B
:1045F00007F00AFB40F604033B6100237B610023C4
:10460000BB6107F110031946174807F0FDFA4CF299
:1046100030033B6111237B610023BB610223FB61FB
:1046200007F110031946104807F0EEFA04233B6126
:1046300011237B610023BB610223FB6107F110039F
:1046400019460A4807F0E0FA094B9B6843F4806377
:10465000074A936000BF2037BD4680BD001002406E
:104660000010014000080140000C0140001401400E
:104670002008002080B483B000AF03460A46FB80C8
:104680001346BB80FB880F2B0FDC002B11DB1A4677
:104690004CF28703D34003F00103002B14BF012326
:1046A0000023DBB2002B06D103E0A3F54053042B1B
:1046B00001D9022309E000BFBB88002B02D0BB88D0
:1046C0007D2B01D9032300E0002318460C37BD469B
:1046D00080BC704780B483B000AF03460A46FB80BD
:1046E0001346BB80FB88022B02DC002B05DA02E0BC
:1046F000043B012B01D9022309E000BFBB88002B3A
:1047000002D0BB887D2B01D9032300E0002318468B
:104710000C37BD4680BC704780B483B000AF034601
:104720000A46FB801346BB80FB885C2B1BDC502BAE
:104730002ADA3D2B17DC242B04DA052B10DC002BA6
:1047400022DA10E0243B234A22FA03F303F00103A8
:10475000002B14BF01230023DBB2002B14D102E095
:10476000143B072B10D9FB885F2B02D9FB886B2BDE
:104770000CD9FB88B3F55A4F04D3FB884DF62022A1
:10478000934205D9022320E000BF02E000BF00E011
:1047900000BFFB88B3F55A4F0ED3FB884DF620229D
:1047A000934209D8BB88002B02D0BB88152B01D9B6
:1047B00003230AE0002308E0BB88002B02D0BB885B
:1047C0007D2B01D9032300E0002318460C37BD469A
:1047D00080BC704777FFFF0380B483B000AF03460F
:1047E0000A46FB801346BB80FB884FF6FF7293425C
:1047F00031D0FB881B0A9BB2DBB2902B2BD0FB88FD
:104800001B0A9BB2DBB2802B25D0FB881B0A9BB214
:10481000DBB2822B1FD0FB881B0A9BB2DBB28A2B38
:1048200019D0FB881B0A9BB2DBB2EC2B13D0FB88A0
:104830001B0A9BB2DBB2442B0DD0FB881B0A9BB238
:10484000DBB2D02B07D0FB881B0A9BB2DBB2292B33
:1048500001D002234EE0FB884FF6FF72934204D151
:10486000BB88012B45D0032344E0FB881B0A9BB285
:10487000DBB2902B05D1FB88DBB2002B39D00323B0
:1048800038E0FB881B0A9BB2DBB2802B0BD0FB8885
:104890001B0A9BB2DBB2822B05D0FB881B0A9BB2A2
:1048A000DBB28A2B25D1FB88DBB2882B21D0FB8899
:1048B000DBB2572B1DD0FB88DBB2582B19D0FB88FD
:1048C000DBB2D12B15D0FB88DBB2892B11D0FB8852
:1048D000DBB28C2B0DD0FB88DBB24A2B09D0FB88D6
:1048E000DBB2972B05D0FB88DBB26B2B01D0032307
:1048F00000E0002318460C37BD4680BC704780B4EA
:1049000083B000AF03460A46FB801346BB80FB889A
:1049100043F20402934209DCB3F5405F08DA002B4E
:1049200006D0002B02DB053B022B01D9022323E03A
:1049300000BFFB8843F20302934204D0FB8843F29A
:10494000040293420DD1BB881B0A9BB2DBB2FF2B42
:1049500010D0BB881B0A9BB2DBB2002B0AD003230A
:104960000AE0BB88B3F57F4F05D0BB88002B02D08F
:10497000032301E000BF002318460C37BD4680BC6E
:104980007047000080B485B000AF03460A46FB8044
:104990001346BB80FB8843F20202934200F3C580BA
:1049A000B3F5405F80F2C38042F24202934200F3CB
:1049B000BC80B3F5005F0CDC5C2B00F3B6805A2B97
:1049C00080F2B5801B2B00F3AC80002B80F29C8022
:1049D000ABE0A3F50053013B412B00F2A68001A2FE
:1049E00052F823F02F4B04082F4B04082B4B0408DC
:1049F0002B4B04082B4B04082B4B04082B4B0408AF
:104A00002B4B04082B4B04082B4B04082B4B04089E
:104A10002B4B04082B4B04082B4B04082B4B04088E
:104A20002B4B04082F4B04082F4B04082B4B040876
:104A30002B4B04082B4B04082B4B04082B4B04086E
:104A40002B4B04082B4B04082B4B04082B4B04085E
:104A50002B4B04082B4B04082B4B04082B4B04084E
:104A60002B4B04082F4B04082F4B04082B4B040836
:104A70002B4B04082B4B04082B4B04082B4B04082E
:104A80002B4B04082B4B04082B4B04082B4B04081E
:104A90002B4B04082B4B04082B4B04082B4B04080E
:104AA0002B4B04082F4B04082F4B04082B4B0408F6
:104AB0002B4B04082B4B04082B4B04082B4B0408EE
:104AC0002B4B04082B4B04082B4B04082B4B0408DE
:104AD0002B4B04082B4B04082B4B04082B4B0408CE
:104AE0002B4B04082F4B04082F4B0408243BD84AB7
:104AF00022FA03F303F00103002B14BF0123002368
:104B0000DBB2002B13D110E01A46D24BD34003F096
:104B10000103002B14BF01230023DBB2002B06D1BD
:104B200003E03A2B01DC242BE0DA02238EE200BF03
:104B3000FB8843F20202934200F38782B3F5405FA1
:104B400080F242815C2B00F32D81132B80F28E804A
:104B50007BE2A3F50053013B412B00F2768201A2D8
:104B600052F823F0DF4D0408DF4D04084B500408D1
:104B70004B5004084B5004084B5004084B50040899
:104B80004B5004084B5004084B5004084B50040889
:104B90004B5004084B5004084B5004084B50040879
:104BA0004B500408EB4D0408EB4D04084B5004082F
:104BB0004B5004084B5004084B5004084B50040859
:104BC0004B5004084B5004084B5004084B50040849
:104BD0004B5004084B5004084B5004084B50040839
:104BE0004B500408EB4D0408EB4D04084B500408EF
:104BF0004B5004084B5004084B5004084B50040819
:104C00004B5004084B5004084B5004084B50040808
:104C10004B5004084B5004084B5004084B500408F8
:104C20004B500408EB4D0408EB4D04084B500408AE
:104C30004B5004084B5004084B5004084B500408D8
:104C40004B5004084B5004084B5004084B500408C8
:104C50004B5004084B5004084B5004084B500408B8
:104C60004B500408EB4D0408EB4D0408133B492B53
:104C700000F2EB8101A252F823F000BFB94D040805
:104C80001D4E04081D4E04081D4E04081D4E040848
:104C90004B5004081D4E0408074F0408314F040808
:104CA0004B5004084B5004084B5004084B50040868
:104CB0004B5004084B5004084B5004084B50040858
:104CC000574F04086B4F04084B5004084B5004081E
:104CD0001D4E04081D4E04084B5004084B50040898
:104CE0004B5004084B5004084B5004084B50040828
:104CF0004B5004084B5004084B5004084B50040818
:104D00004B5004087F4F04084B5004084B500408D4
:104D10004B500408F34F04087F4F04084B5004081D
:104D20004B5004084B5004084B5004084B500408E7
:104D30004B5004084B5004084B5004084B500408D7
:104D40004B5004084B5004084B5004084B500408C7
:104D50004B5004084B5004084B5004084B500408B7
:104D60004B5004084B5004084B5004084B500408A7
:104D70004B5004084B5004084B5004084B50040897
:104D80004B5004084B5004084B5004084B50040887
:104D90004B5004084B5004088F4F0408B54F0408CB
:104DA000DB4F040842F24202934200F34E81B3F516
:104DB000005F3FF7CEAE48E1BB8840F21F2293422E
:104DC00000F01C81032341E1BB88B3F57F4F00F065
:104DD0001781BB88002B00F01381032336E1BB88C9
:104DE000052B40F20F81032330E1BB881B0A9BB2E5
:104DF000FB73BB88BB73BB7B002B01D1032325E175
:104E000097F90F30002B80F2FF80BB7B072B03D973
:104E1000BB7B0F2B40F2F880032317E1BB883B815B
:104E2000B7F908307D2B06DDB7F9083013F1370FDD
:104E300001DA03230AE1FB88142B0FD1064B5B88B0
:104E40001BB2B7F908209A42C0F2E0800323FDE0CC
:104E5000FB0062000100F80E04000020FB88152B07
:104E600009D17D4B1B881BB2B7F908209A4200F389
:104E7000CF800323EAE0FB88162B09D1764BDB8831
:104E80001BB2B7F908209A42C0F2C4800323DDE0C8
:104E9000FB88172B09D1704B9B881BB2B7F90820F0
:104EA0009A4200F3B9800323D0E0FB88282B02D07C
:104EB000FB88292B18D1B7F90830674A528912B2FA
:104EC0001344654AD28812B293420BDCB7F908301A
:104ED000614A528912B29B1A5F4A928812B2934277
:104EE00080F29C800323B1E0FB88192B40F098806E
:104EF000B7F90830072B04DCB7F90830002B00F3B2
:104F000091800323A2E0BB8841F65732934200F21E
:104F10008B80BB8844F25062934240F28580BA880D
:104F20004D4BDB891BB202339A427DDC03238DE0BB
:104F3000BB8841F65732934278D8BB8844F250621E
:104F4000934273D9444B9B891BB25A1EBB889A4229
:104F50006CDD03237AE0404B5B8A9BB2A3F16302D2
:104F6000BB889A4264DC032370E03B4B1B8A9BB2F4
:104F700003F16302BB889A425CDB032366E0BB88D3
:104F8000002B02D0BB880A2B56D903235EE0BB88D6
:104F90001B0A9BB2FB72BB88BB72FB7A632B01D9E5
:104FA000032353E0BB7A002B02D0BB7A0C2B45D9EC
:104FB00003234BE0BB881B0A9BB27B73BB883B730C
:104FC0007B7B002B02D07B7B1F2B01D903233DE091
:104FD0003B7B172B34D9032338E0BB881B0A9BB2D9
:104FE000DBB23B2B03DCBB88DBB23B2B2ADD03238C
:104FF0002CE0BB88072B27D9032327E000BF24E040
:1050000000BF22E000BF20E000BF1EE000BF1CE0A8
:1050100000BF1AE000BF18E000BF16E000BF14E0B8
:1050200000BF12E000BF10E000BF0EE000BF0CE0C8
:1050300000BF0AE000BF08E000BF06E000BF04E0D8
:1050400000BF02E000BF00E000BF00231846143795
:10505000BD4680BC704700BF0400002080B584B00E
:1050600000AF786039600023FB730223BB73002319
:105070007B737B68042283F813213B689B88DB08E1
:105080009BB2DAB23B689B8803F007039BB2002B0C
:1050900014BF01230023DBB21846BB7B591CB97334
:1050A00019461318DAB27B680B44DA743B685B88E4
:1050B0007B813EE07B7B082B14D1BB7B5A1CBA73EF
:1050C0001A467B681344FA7BDA747B6893F81331D1
:1050D0000133DAB27B6883F813210023FB730023CA
:1050E0007B7302E0FB7B5B08FB733B681B78012B47
:1050F0000AD17B89184600F0E7FA0346002B14BF5B
:1051000001230023DBB209E07B89184600F0ACFBE9
:105110000346002B14BF01230023DBB2002B02D077
:10512000FB7B803BFB737B7B01337B737B89013390
:105130007B817A893B685B8819463B689B880B4476
:105140009A42B7DB7B7B002B0BD0FA7B7B7BC3F1D6
:10515000080342FA03F3FB73BB7B7A681344FA7BC0
:10516000DA747B6893F813310233DBB27B7297F900
:10517000093018461037BD4680BD80B584B000AFF9
:10518000786039600223FB737B68032283F8132164
:105190003B689B88DAB2FB7B591CF97319465300B4
:1051A000DAB27B680B44DA743B685B88BB8125E02C
:1051B000BB89184600F0A6FB03463B81B7F90830CF
:1051C0001B121AB2FB7B591CF9731946D2B27B68C9
:1051D0000B44DA74FB7B5A1CFA7319463B89DAB22A
:1051E0007B680B44DA747B6893F813310233DAB2CC
:1051F0007B6883F81321BB890133BB81BA893B6883
:105200005B8819463B689B880B449A42D0DB7B68DD
:1052100093F813310233DBB2FB7297F90B30184667
:105220001037BD4680BD000080B58CB004AF7860FB
:1052300039600023FB773B685B884FF6FF7293422F
:1052400011D13B689B88012B0DD17B6802225A75D6
:105250007B6820229A757B680022DA757B680522BC
:1052600083F81321E9E13B685B881B0A9BB2DBB240
:10527000EC2B00F0D581EC2B00F3DF81D02B00F07C
:10528000FD80D02B00F3D981902B00F3D681802BA9
:1052900006DA292B00F0C681442B00F08381CCE193
:1052A000803B102B00F2C98101A252F823F000BF0D
:1052B0004F5304083B560408CD5304083B560408DA
:1052C0003B5604083B5604083B5604083B5604086A
:1052D0003B5604083B560408255404083B56040872
:1052E0003B5604083B5604083B5604083B5604084A
:1052F000F55204083B685B887B777B680022DA758F
:105300007B6800221A76A04B1B68052118460BF01B
:105310004FFD0346002B40F087813B689A887B7FD6
:1053200019469A4804F07CF803467B83964B1B6829
:1053300018460BF0A3FDB7F91A301B121BB2DAB2F4
:105340007B68DA757B8BDAB27B681A766CE17B68F6
:105350000022DA757B6800221A763B685B88DBB234
:10536000862B0DD17B681733894A12691A607B68D6
:1053700093F813310233DAB27B6883F8132155E1D5
:10538000814B1B68052118460BF012FD0346002BCC
:1053900040F04C813B685B88DBB21A467D497B4814
:1053A00004F09EFA0346FB60774B1B6818460BF02F
:1053B00065FD7B681733FA681A607B6893F81331D0
:1053C0000233DAB27B6883F813212FE17B68002275
:1053D000DA757B6800221A766B4B1B68052118462C
:1053E0000BF0E6FC0346002B40F022813B685B8813
:1053F000DBB21A466849654804F072FA0346FB605E
:10540000614B1B6818460BF039FD7B681733FA684F
:105410001A607B6893F813310233DAB27B6883F841
:10542000132105E17B680022DA757B6800221A7679
:10543000554B1B68052118460BF0BAFC0346002BA0
:1054400040F0F8803B685B88DBB21A4653494F480E
:1054500004F046FA0346FB604B4B1B6818460BF002
:105460000DFD7B681733FA681A607B6893F8133177
:105470000233DAB27B6883F81321DBE00023FB728E
:105480007B68042283F81321FB7F0133FB77FB7FCA
:105490000233434A11787A6813440A46DA743A4B65
:1054A0001B68052118460BF083FC0346002B66D1D0
:1054B00000213648FBF7D8FE0346BB77BB7F002BA5
:1054C00021D0FB7F0133FB77FB7F02337A681344E3
:1054D000FF22DA747B6893F813310133DAB27B6808
:1054E00083F81321FB7F0133FB77FB7F02337A685C
:1054F0001344B022DA747B6893F813310133DAB2C3
:105500007B6883F813210023FB7264230293012339
:10551000019307F10B03009301230622D0211B48BE
:1055200007F0F6FA0346BB77174B1B6818460BF0DB
:10553000A5FCBB7F002B22D0FB7F0133FB77FB7FD9
:1055400002337A6813440622DA747B6893F81331C5
:105550000133DAB27B6883F81321FB7F0133FB77D9
:10556000FB7F0233F97A7A6813440A46DA747B685F
:1055700093F813310133DAB27B6883F813217B6827
:10558000FA7F5A7559E000BF080800200C0100207E
:105590001C090020D4080020EC0800200409002089
:1055A000D00000202B4B5B8B9BB2012B44D07B683F
:1055B0000022DA757B6800221A76274B1B680521CA
:1055C00018460BF0F5FB0346002B35D1234803F0BA
:1055D000BDFF7861204B1B6818460BF04FFC7B68C1
:1055E00017337A6912681A607B6893F813310233B3
:1055F000DAB27B6883F813217B6893F81331103398
:105600007A68134403337A69043212681A607B683B
:1056100093F813310433DAB27B6883F813210BE07B
:1056200000BF0AE000BF08E000BF06E000BF04E0E2
:1056300000BF02E000BF00E000BF7B6893F81331B9
:105640000233DBB2FB7497F9133018462037BD469E
:1056500080BD00BF20080020080800200C010020A9
:1056600080B584B000AF786039603B685A883B6889
:105670009B881946104600F0B1FD7B6893F8133102
:105680000233DBB2FB7397F90F3018461037BD4673
:1056900080BD80B584B000AF786039603B685A88BF
:1056A0003B689B881BB21946104600F073FE7B686E
:1056B00093F813310233DBB2FB7397F90F301846BE
:1056C0001037BD4680BD000080B582B000AF0346F4
:1056D000FB80FB880F2B3BDC002B13DAB8E0A3F533
:1056E0004053042B00F2B48001A252F823F000BF13
:1056F000E5570408FD5704081558040829580408FC
:105700003D5804080F2B00F2A38001A252F823F0A9
:10571000615704087557040889570408515804084C
:10572000515804089D570408C7570408B557040882
:105730005158040851580408515804085158040895
:105740005158040851580408DD570408E15704086B
:1057500043F2040293427BDCB3F5405FBFDA77E0AB
:105760003E4B9B6803F01003002B14BF0123002362
:10577000DBB26EE0394B9B6803F00403002B14BFCF
:1057800001230023DBB264E0344B9B6803F0080381
:10579000002B14BF01230023DBB25AE04FF4007149
:1057A0002F4806F0C5FB0346002B14BF012300233E
:1057B000DBB24EE0294B1B7DDBB2002B14BF012373
:1057C0000023DBB245E02021264806F0B1FB03466A
:1057D000002B14BF01230023DBB23AE0002338E0A2
:1057E000002336E04FF400511D4806F0A1FB0346AC
:1057F000002B14BF01230023DBB22AE04FF48051B9
:10580000184806F095FB0346002B14BF0123002324
:10581000DBB21EE0114B9B6803F48063002B14BFC6
:1058200001230023DBB214E00C4B9B6803F004035C
:10583000002B14BF01230023DBB20AE0074B9B6857
:1058400003F00803002B14BF01230023DBB200E0A8
:10585000002318460837BD4680BD00BF2008002041
:10586000001001400008014080B582B000AF03463F
:10587000FB80FB88072B3BD801A252F823F000BF26
:10588000A1580408A5580408B7580408CF580408BC
:10589000D3580408D7580408E9580408ED580408F8
:1058A000012326E0154BDB7DDBB2002B14BF012367
:1058B0000023DBB21DE04FF48071114806F038FB85
:1058C0000346002B14BF01230023DBB211E00023A9
:1058D0000FE000230DE0094B5B7DDBB2002B14BF12
:1058E00001230023DBB204E0002302E0002300E0F8
:1058F000002318460837BD4680BD00BF20080020A1
:105900000010014080B58AB000AF0346FB80FB88E1
:105910006B2B00F30181002B20DA00F024BCA3F5EF
:105920005A430A2B00F21F8401A252F823F000BF51
:10593000E35E0408FF5E04081B5F0408375F040889
:10594000535F04086F5F04088B5F0408A75F0408B7
:10595000C35F0408DF5F0408356004086B2B00F2A6
:10596000028401A252F823F02D5B0408375B04087F
:105970007F5B0408C75B0408CF5B0408DF5B040897
:1059800067610408676104086761040867610408C7
:1059900067610408676104086761040867610408B7
:1059A00067610408676104086761040867610408A7
:1059B0006761040867610408F35B0408FB5B040883
:1059C000035C04080B5C0408135C04081B5C0408FB
:1059D000235C04082B5C0408676104086761040801
:1059E0006761040867610408676104086761040867
:1059F0006761040867610408335C04083D5C0408BF
:105A0000475C0408676104084D5C0408555C0408A1
:105A10005D5C040867610408675C0408715C040845
:105A20007B5C0408855C04088F5C0408995C0408AE
:105A3000A35C0408AD5C0408B55C0408B95C040808
:105A4000C35C0408CF5C0408D95C0408E15C04086A
:105A5000EB5C0408F55C0408015D04080B5D0408B8
:105A600067610408676104086761040867610408E6
:105A700067610408676104086761040867610408D6
:105A800067610408676104086761040867610408C6
:105A900067610408676104086761040867610408B6
:105AA0006761040867610408135D04081B5D04084E
:105AB000255D04082F5D0408895D0408B15D0408B4
:105AC000D75D0408FF5D0408095E0408115E040840
:105AD0001B5E04084F5E0408A55E040867610408A5
